:020000041000EA
:1000000000B5324B212058609868022188439860DF
:10001000D860186158612E4B002199600221596106
:100020000121F02299502B49196001219960352056
:1000300000F044F80222904214D00621196600F024
:1000400034F8196E01211966002018661A6600F04E
:100050002CF8196E196E196E052000F02FF8012189
:100060000842F9D1002199601B49196000215960AB
:100070001A491B48016001219960EB211966A021F2
:10008000196600F012F800219960164914480160C1
:100090000121996001BC002800D000471248134993
:1000A000086003C880F30888084703B5996A0420EC
:1000B0000142FBD001200142F8D103BD02B5186610
:1000C0001866FFF7F2FF186E186E02BD00000240BE
:1000D000000000180000070000035F00212200005C
:1000E000F4000018222000A00001001008ED00E03C
:1000F00000000000000000000000000074B24E7A12
:1001000000200420F7010010C3010010C5010010F9
:10011000C1010010C1010010C1010010C101001097
:10012000C1010010C1010010C1010010C701001081
:10013000C1010010C1010010C9010010CB01001065
:10014000CD010010CD010010CD010010CD01001037
:10015000CD010010CD010010CD010010CD01001027
:10016000CD010010CD010010CD010010CD01001017
:10017000CD010010CD010010CD010010CD01001007
:10018000CD010010CD010010CD010010CD010010F7
:10019000CD010010CD010010CD010010CD010010E7
:1001A000CD010010CD010010CD010010CD010010D7
:1001B000CD010010CD010010CD010010CD010010C7
:1001C00000BE00BE00BE00BE00BE00BEEFF3058054
:1001D000103800BEF2EB8871A4880510C4880510A1
:1001E0003802001090A31AE71E481F49086006C88D
:1001F00081F3088810471D480068002801D019487D
:10020000F3E70DA40ECC002902D000F012F8F9E7B4
:100210001749184A002000E001C19142FCD116495B
:100220008847164988471649884700BEFDE701C937
:1002300001C29A42FBD37047C4880510E000002039
:10024000481800202CA00510000004200000042005
:100250002CA0051000100420001004200000000055
:10026000704700000000000008ED00E0000000D032
:100270004818002000E90220AD6200104903001078
:10028000A5620010F8B5C04606480749091A8B1048
:10029000C90FC91810B5491003D0044B002B00D06A
:1002A000984710BD481800204818002000000000A2
:1002B000054B10B5002B03D00449054800E000BFF2
:1002C000FFF7E2FF10BDC046000000009CD30020F5
:1002D000F0DD011010B50400042102F0ADF8630850
:1002E0001F2C20D807221A401148930084469918E1
:1002F00010489B188900104A9B00614408619A18B5
:1003000011680122144060420C4C604001400C48CE
:10031000181801600649591809688A4309498C462A
:1003200063441A6010BD03221A400832DCE7C0465D
:1003300000000540D43000000C000540FFFF000025
:100340000C1005400010054070B582B006F0ECF8C6
:1003500000F072F815200024FFF7BCFF0125802271
:100360000023254992002548019400950AF034FAAB
:1003700080220023224992002248019400950AF02D
:100380002BFA8022002320499200204801940095F6
:100390000AF022FA0226802200231D4992001D48FD
:1003A000019400960AF018FA032380221A49009358
:1003B000D2000023194801940AF00EFA802200238B
:1003C000174912011748019400950AF005FA802296
:1003D0000023154912011548019400960AF0FCF912
:1003E00080220023124912011248019400950AF05C
:1003F000F3F90AF063FAFEE7F0DD0110A906001038
:10040000F8DD01102909001000DE0110450C001074
:1004100008DE0110990E001010DE011041100010CE
:1004200018DE0110B511001024DE0110D9150010DE
:100430002CDE01104D16001070B55D4D5D49280091
:1004400008F054FE0321002001F0F6FF03210120F3
:1004500001F0F2FF00220121002002F007F8002243
:100460000121012002F002F8012009F095FC524B15
:10047000524E18605249300008F038FE0321022025
:1004800001F0DAFF0321032001F0D6FF0022012151
:10049000022001F0EBFF00220121032001F0E6FF22
:1004A000D024052002F0D0F82023240600220121C8
:1004B000A362052001F0DAFF062002F0C5F8402310
:1004C00000220121A362062001F0D0FF0D2002F0DE
:1004D000BBF880239B0163620B20A36102F0B4F898
:1004E00080231B0163620C20A36102F0ADF880231E
:1004F0005B0163621520A36102F0A6F880239B03D1
:1005000063620A20A36102F09FF88023DB0063622C
:100510000120A36109F040FC2A4B0322186000214E
:10052000012009F0FDFA284B012218600421274B15
:10053000052001F0EFFF01220421062001F0BEFF9B
:10054000280001F0AFF8300001F0E8F8002819D1D8
:100550001F4806F037F81F4C3100200001F048F921
:10056000002819D11C4806F02DF8002280210A200D
:1005700009F0D6FA194B1860002815D0184806F073
:1005800021F870BD174806F01DF8124C310020000C
:1005900001F02EF90028E5D0134806F013F80021E9
:1005A000200001F04FFBE0E7104806F00BF8E8E709
:1005B00070120020801A0600CCD3002068120020A0
:1005C000A08601002439002080330020C50F0010D0
:1005D00038DE0110ECE7022080DE011088330020B5
:1005E000F4DE011064DE0110ACDE0110C8DE011083
:1005F0000FB410B50D4C82B02068002803D0012143
:10060000494209F073FD05A90498019105F0F8FF2E
:100610002068002804D000230022002109F0D2FA2B
:1006200002B010BC08BC04B01847C046CCD30020B0
:1006300070B584B06A46752393730023184D642106
:100640002868D37309F052FD0024012802D020004D
:1006500004B070BD0E22134E0090012368213000BB
:100660006A4408F06BFD002807DA0024002300220A
:100670000021286809F0A6FAE9E70F220123682182
:10068000300000946A4408F063FD0028EDDB6B46FF
:10069000DC7BF723683C1C4063425C41E4B2E5E745
:1006A0002439002068120020F0B557464E464546D2
:1006B000DE46002301240021E0B591B099460A935B
:1006C000894B8A4D08938A4BA8469A46894B250048
:1006D0000593894B894E0693894B0CAF9B46894BFA
:1006E0000C1C0393884B0993884B0B93884B0793FF
:1006F00003E0FA2040000AF0E7F93378002BF8D144
:10070000FFF796FF002800D1A1E0002D00D1ABE05B
:1007100053466421186809F0E9FC012874D13900B6
:10072000059800F0CDFF53460022002118680023F1
:1007300009F048FA0A23F85E04F012F8754903F04C
:10074000BCFF051C0023F85E04F00AF8E2218905CD
:1007500003F0C7FF01900222BB5E04930423F85EFE
:1007600003F0FEFFE221890503F0BBFF211C02908C
:1007700003F09DFFFF218905041C03F0E7FF00281B
:1007800005D16549201C03F0DBFF002807D0201CA1
:1007900004F03CF802000B000698FFF729FF5B46C7
:1007A00059461B685A1C0A6003999B00CD50632A66
:1007B00065DC019C5949201C03F0C8FF00283CD18E
:1007C0005749201C03F0BCFF002836D1049803F0E1
:1007D000C7FFE221890503F084FF5049041C03F0A0
:1007E000B5FF002829D14E49201C03F0A9FF00289D
:1007F00023D10023994664200AF066F93378DDB2EC
:10080000002B35D0029C74E764200AF05DF9337840
:10081000DDB2002B00D06CE7FFF70AFF002800D004
:1008200076E70898FFF7E4FEFA20C0000AF04CF9DA
:100830003378002B14D000255BE701239C46E1446C
:100840004B46042BD7D90798FFF7D2FED1E7002DEE
:10085000E7D1FA20C0000AF037F93378002BEAD14B
:10086000FFF7E6FE0028DFD04046FFF7C1FE4FE766
:10087000FFF7DEFE029C002800D049E7D1E70D001B
:100880000C0000209135FF3502CC03F013FFA54288
:10089000FAD1244903F011FF041C03F0B7FF020052
:1008A0000B000998FFF7A4FEBF21201C090603F0E6
:1008B0004DFF002815D0FC21201C890503F040FFC6
:1008C00000280ED00A9B64331A000A939623DB009B
:1008D0009A4203D200235A4613606AE70B98FFF747
:1008E00087FE00230A93F5E718DF011054DF01109B
:1008F000243900206812002090DF0110EDE802206A
:100900002839002090330020CCDF0110FCDF0110DB
:1009100038E00110000003430000C0BF9A99993FDE
:100920009A9999BF0000C842F0B5DE4657464E4638
:100930004546E0B5A94B93B0994610AB9846A84BF5
:10094000A84C0493A84B0593A84B0B93A84B099371
:10095000A84B0A93A84B0893A84B0793A84B069360
:10096000A84B9A46A84B0293A84B0E93A84B9B46C4
:10097000A84B0F93A84B0D93A84B0C932378002BF7
:1009800006D0FA2040000AF09FF82378002BF8D117
:100990004B466421186809F0A9FB002807D1029B87
:1009A0001B78002B5FD19E480AF08EF8E6E741469F
:1009B000049800F0C9FE059B05001B78002800D1B3
:1009C000D5E0002B00D1EEE04246099B03CA03C3E9
:1009D0004346186803F01AFF4346060058680F00A4
:1009E00003F014FF3B000090019132000A98FFF7DA
:1009F000FFFD43461D688B49281C03F0A7FE002815
:100A000000D0BAE08849281C03F09AFE00280DD1D6
:100A100043465D688549281C03F098FE002805D1EF
:100A20008349281C03F08CFE002843D0002208993B
:100A300007980B68026001330B60022B04DD029BF8
:100A40001B78002B00D1BBE0069B1B680B2B4FDCF7
:100A50004B46002218680021002309F0B3F8029BDE
:100A60001B78002B9FD00AF071F85B46714A1B6817
:100A70000390C31A934296D9D025802780262D064D
:100A8000BF013601C8206F616E610AF01DF8C820F1
:100A9000AF61AE610AF018F8C8206F616E610AF0AC
:100AA00013F8AF61C820AE610AF00EF85B46039AF6
:100AB0001A6078E7079A136801331360089A106088
:100AC000022BC1DD029B1B78002BBDD00F98FFF7D6
:100AD0008FFD0023029A1370D02380221B069201FF
:100AE0009A61802212019A61069B1B680B2BAFDD75
:100AF00053460021186803F0DDFD5346596803F0A2
:100B0000D9FD5346996803F0D5FD5346D96803F0E3
:100B1000D1FD5346196903F0CDFD5346596903F0E1
:100B2000C9FD5346996903F0C5FD5346D96903F0E1
:100B3000C1FD5346196A03F0BDFD5346596A03F0DF
:100B4000B9FD5346996A03F0B5FD5346D96A03F0DF
:100B5000B1FD394903F0B1FD03F058FE02000B006E
:100B60000D98FFF745FD0023069A136070E7002BF0
:100B700020D1049800F0D2FD6AE73049281C03F028
:100B8000DFFD002800D151E70699281C0B685A1C8C
:100B90000A6052469B002A49D55003F0D7FD002831
:100BA00000D043E72EE70B98FFF722FD0123059ABB
:100BB000137009E70C98FFF71BFD059B1D70D8E724
:100BC0000E98FFF715FD0123029A137009F0BEFF7E
:100BD0005B461860079B1B6872E7C04624390020FB
:100BE00068120020EDE80220A011002084E001102E
:100BF00054390020B0E00110603900206439002031
:100C00007CE7002080E70020E7E80220E4E0011014
:100C1000B8E7022018E1011044E1011070E1011071
:100C200088130000000020C2000088410000A0429C
:100C30000000E8410F270000000040410000AA42E8
:100C400000000C42F0B557464E46DE4645460023AE
:100C5000E0B5B5B009930593049301930693794BDE
:100C6000794F9946794B7A4E02937A4B0F937A4B90
:100C70009B467A4B0B937A4B0E937A4B03937A4BAA
:100C800008937A4B07937A4B0C937A4B0D937A4BDC
:100C90000A937A4B12937A4B13937A4B9A467A4B78
:100CA00010937A4B11937A4B98463B78DCB2002B29
:100CB0003FD16421306809F019FA002839D048463C
:100CC00001F044F80500404569D0FA23DB00984262
:100CD00048D8029C2378002B04D10B98FFF788FC9E
:100CE0000123237029000398FFF782FC01F052F9D9
:100CF000002863D109F02AFF0090C72D41D8059B39
:100D0000644AC31A93426BD8019B002B61D0069BA7
:100D1000009AD41A5F4B9C4203D9049B002B0DD040
:100D2000019353461D80002300220021306808F003
:100D300049FFFA20400009F0C7FEB6E71298FFF716
:100D400057FC3822139914A803F0F8FD0A9B186881
:100D50000028E6D00023642214A908F033FF019B89
:100D60000493DEE709F0F2FE5B464A4A1B68040082
:100D7000C31A9342D7D90E98FFF73AFC5B461C6022
:100D8000D1E7C82D08D053461B88632B04D8099B94
:100D9000404AC31A934240D800230493C0E7029B01
:100DA0001B78002B33D1002300220021306808F08B
:100DB00009FFFA20800009F087FE76E72B0020214A
:100DC000089A14A805F014FA079814A901F068F815
:100DD00090E700230493009B069301230193A0E76F
:100DE0000C98FFF705FC0D9A14AB13CA13C313CA72
:100DF00013C303CA03C30A9B1868002884D00023C6
:100E0000642214A908F0DEFE009B05937CE70F988E
:100E1000FFF7EEFB029B1C70C5E71098FFF7E8FB9D
:100E20003422119914A803F089FD0A9B1868002840
:100E3000B2D00023642214A908F0C4FE009B0993D9
:100E4000AAE7C046ECE70220EDE80220A11100204D
:100E500024390020B4E10110B4E70220ECE10110D4
:100E600018E2011040E2011060E2011064E201109A
:100E700080E20110A4E2011088330020C4E20110D6
:100E8000F4E20110E2E802202CE301105CE301101F
:100E9000FFFF000087130000F0B557464E46454659
:100EA000DE46E0B5D0278026384B89B09A46384BCD
:100EB000384D0793384B394C9946394B3F060693CA
:100EC000384BB6019846384B0193384B9B46384B0C
:100ED0000493384B059301212868494209F006F92B
:100EE0000028F8D05046FFF783FB01F053F80028A4
:100EF00044D04846079900F0D3FF0698FFF778FBE7
:100F0000019B1B78002B23D04B4602934346A946F6
:100F1000A0460393284D7E612A68284B284C5340F5
:100F20001B0C1B04C820236009F0CEFDBE612B689A
:100F3000C8201B0C1B04236009F0C6FD019B1B7815
:100F4000002BE7D1039B44469846029B4D469946A9
:100F5000194BBE611B681A4A1B0C1B0458461360D0
:100F6000FFF746FB01F016F800280BD0484604991D
:100F700000F096FF0598FFF73BFBACE74046FFF714
:100F800037FBBDE72000FFF733FBA4E790E3011038
:100F9000C0E301108033002004E4011014E50110C7
:100FA0001CE4011044E40110EDE8022080E401108B
:100FB000A4E40110E4E401103400054000006A18C4
:100FC00034100540002300B583B00193052817D0E5
:100FD000062801D003B000BD134A11780029F9D0CA
:100FE0001370D02380221B0692019A610F4B104A86
:100FF0001B6810481B0C1B041360FFF7F9FA0AE08A
:10100000094B1A78002AE5D101321A700A4B01A95E
:10101000186808F09FFF019B002BDBD08022074B54
:1010200052051A60D6E7C046EDE8022034000540BC
:101030003410054080E401108033002004ED00E00E
:1010400010B515F027FB002826D115F0B9FA164C7B
:1010500016482100FFF7CCFA15492000154B164A17
:1010600015F0BCFA011E13D01448FFF7C1FA012194
:10107000002015F0FFFAFA20400009F025FD0021BC
:10108000002015F0F7FAFA20400009F01DFDEEE708
:101090000B48FFF7ADFAEAE70A48FFF7A9FA002084
:1010A00009F0ACFB10BDC04670E5011078E50110F9
:1010B0009CE501101027000004004000C4E5011069
:1010C000A8E5011050E5011030B50E4D85B003AC18
:1010D000207061702868642109F008F8012801D0A7
:1010E00005B030BD0023220000935721023306488B
:1010F00008F024F8002300220021286808F062FD8F
:10110000EEE7C0462439002068120020F0B5CE4634
:10111000474680B587B007236A46244E04000F0077
:1011200030686421D37308F0E1FF0025012805D061
:10113000280007B0C0BCB946B046F0BD1C4B0F221A
:10114000984600900123572140466A4407F0F6FF75
:10115000002807DA0025002300220021306808F06B
:1011600031FDE5E704AB9946572106234A46404640
:10117000009507F0EDFF0028ECDB4B464A461B7854
:1011800052781B04120213434A46927801251343F6
:101190003B604A464B461279DB7812021B0413432C
:1011A0004A46527913432360D5E7C04624390020CC
:1011B00068120020F0B5DE464E4657464546FA20F6
:1011C000E0B5800093B009F07FFC0923E14E0CAA42
:1011D00093826421306808F089FFDF4B012800D139
:1011E000E9E10593322009F06FFC03210920FFF7A4
:1011F0006BFF1F210A20FFF767FF24210C20FFF758
:1012000063FF24210D20FFF75FFF00210F20FFF770
:101210005BFF0F210820FFF757FF642009F054FC03
:10122000CE48FFF7E5F900231093119309F08EFCE7
:10123000039009F08BFC0123994600239A460893FA
:10124000099300230293002300279B460493C44B79
:10125000C44D0A93C44B06900B93C44B0793C44BE5
:101260000D93C44B0C932B78DCB2002B07D0FA20E3
:10127000400009F029FC2B78DCB2002BF7D111A932
:1012800010A8FFF743FF4B46002800D180E0002B59
:1012900000D1E7E0109B98465B46002B62D14745A2
:1012A00060D24346DF1BFA239B009F4200D975E1C1
:1012B000119803F050FA071C404603F04CFA011C49
:1012C000381C03F0FAF9AC4903F00BFA03F06AFAA0
:1012D0006E23181A462800DBBFE0462003F040FAD0
:1012E000011C029803F0E6F901239C460290E244B7
:1012F00009F02CFC039B0700C21AA04B9A422CD980
:10130000504603F02DFA011C029803F0D6F903F0C1
:1013100049FA8246049B52469A4619000798FFF7FD
:1013200067F95346323B322B09D9089C002C00D177
:10133000A4E0099B924AFB1A934200D936E1069B2E
:10134000904AFB1A934200D994E000239A46002366
:1013500002930023089403970493642009F0B4FBDC
:10136000474680E742460023BA425B415A461A404C
:1013700043469346002B9BD109F0E8FB039B0700F3
:10138000C21A7E4B9A42E8D95346002BC2D0B7E727
:10139000002B6BD1FA20C00009F096FB09236A46A6
:1013A00064213068938708F0A1FE012800D186E00F
:1013B000322009F089FB6A46734B642130689387B9
:1013C00008F094FE012800D1B5E06A466F4B642115
:1013D0003068938708F08AFE012800D19CE06A46B5
:1013E0006B4B64213068938708F080FE012800D1A0
:1013F00083E06A46674B64213068938708F076FE85
:1014000001286BD00F236A4664213068938708F067
:101410006DFE012844D06A465F4B64213068938793
:1014200008F064FE01282CD0642009F04DFB11A9BE
:1014300010A8FFF76BFE8146002800D113E70B9838
:10144000FFF7D6F809F082FB00239A4600230293A7
:10145000002303900690049305E7642800DC3DE731
:1014600064203BE7642009F02FFBFCE60A98FFF7B5
:10147000BFF88FE70C98FFF7BBF866E74C46099773
:101480005DE700230FAA009357210598023307F068
:1014900055FE002300220021306808F093FBC3E7CB
:1014A00000230FAA009357210598023307F046FE48
:1014B000002300220021306808F084FBABE7002302
:1014C0000FAA009357210598023307F037FE002337
:1014D00000220021306808F075FB69E700230FAA9D
:1014E000009357210598023307F028FE00230022BD
:1014F0000021306808F066FB84E700230FAA009300
:1015000057210598023307F019FE0023002200211D
:10151000306808F057FB6CE700230FAA00935721AF
:101520000598023307F00AFE0023002200213068EC
:1015300008F048FB53E700230FAA009357210598B2
:10154000023307F0FBFD002300220021306808F081
:1015500039FB3AE72439002068120020E8E5011041
:1015600018E60110EDE8022060E60110A0E6011087
:10157000C8E6011010E701100000C8415FEA000052
:10158000973A00000F270000090300000A1F00001F
:101590000C2400000D240000080F0000049BCB4623
:1015A0000133049309F0D2FA069081E604990D986C
:1015B000FFF71EF8C3E60024059311AA180057216F
:1015C0000223009407F0BAFD2300220021003068B6
:1015D00008F0F8FA06E6C04670B5144804F0F2FFC9
:1015E000134C03E0FA20400009F06EFA00212000BD
:1015F00018F01EFE0328F5D10E4804F0E3FF00F0BA
:1016000085FC0D4D0D4C0E4E07E0290020000D4AC3
:1016100005F05CF80C4809F057FA00F0BBFC002814
:10162000F3D1300004F0CEFFF4E7C04664E70110C8
:10163000F02400208CE70110C4E70110D4E701106A
:1016400004E801105B07000088130000F0B5114C9E
:10165000114E124D124FA1B001226946206852422C
:1016600008F0B6FC0128F7D100F094FC6946002888
:101670000BD0300000F014FC69462800FEF7B8FFDC
:10168000FA20400009F020FAE6E73800FEF7B0FF44
:10169000F6E7C0468833002004E4011044E8011056
:1016A00060E8011000B585B06A466B239381002382
:1016B0006821009303AA023307F040FD05B000BD86
:1016C00070B588B06A463B23D3730F223A3B0C00B7
:1016D00000936A446821060007F030FD002304AD42
:1016E00000932A00682130000E3307F031FD2B886B
:1016F0005BBA23806B885BBA6380AB885BBAA380DC
:10170000EB885BBAA3812B895BBAE3806B895BBAF8
:101710002381AB895BBA638108B070BD002300B53B
:1017200083B0009338210333064A07F007FD0023F6
:10173000002803DB142001F0D5FF0123180003B0BB
:1017400000BDC046E0090210F0B5002585B00F00CD
:1017500003233821224A0095040007F0EFFC0028FB
:101760003ADB502002AE01F0BDFF062332003821E3
:101770002000009507F0ECFC00282DDB7722337861
:101780009343082B28D17078B378F4781B010003B9
:1017900018432309184302F0DEFFD621890502F021
:1017A000A0FF104902F09DFFF02378601B03200486
:1017B0001840B3885BBA9BB2184302F0CCFFD62125
:1017C000890502F08EFF084902F08BFF074902F0FD
:1017D0006EFF3860012000E0002005B0F0BDC0467B
:1017E000DC0902100000C8420000484300004842E3
:1017F000F0B5DE4657464E46454604002923E0B57F
:1018000085B02371FA239B00E3809846C02300260D
:1018100003AD5B009946984F2B807F3B2160080009
:101820002A002921FF3B009607F088FC2F802179B0
:1018300002232A002068009607F080FC2E80217980
:1018400002232A002068009607F078FC91236A465C
:10185000D3720B22903B217920686A4400939A4608
:1018600007F06CFC217901232A002068009607F01C
:101870006FFC2B782A00237280235B002B80217958
:101880002068FE3B009607F059FCFF232B8021794E
:101890002A002068FD3B009607F050FC80232B8037
:1018A00021792A0020687E3B009607F047FC6023E0
:1018B0009B466B465A46DA725346553A2179206860
:1018C0006A44009307F03AFC217901232A0020683A
:1018D000009607F03DFC5A462B782A7012221343DB
:1018E0006B70217902232A002068009607F026FCFD
:1018F00044232B80243BAB7021792A0020681D3BB8
:10190000009607F01BFCFF235B422B8002332179FA
:101910002A002068FF33009607F010FC4B462B800E
:101920007F3B21792A002068FF3B009607F006FCE8
:101930002F80217902232A002068009607F0FEFB01
:101940002E80217902232A002068009607F0F6FBFA
:101950004A4B2A002B80217902232068009607F049
:10196000EDFB6B467D3FFF3F1F7253462179206898
:1019700002AA009307F0E2FB217901232A002068E4
:10198000009607F0E5FB04222B782F7013436B7051
:10199000217902232A002068009607F0CFFB384BFC
:1019A0002A002B80217902232068009607F0C6FBCD
:1019B0008223FF332B80803B21792A002068FF3B64
:1019C000009607F0BBFB4B462B807F3B21792A001A
:1019D0002068FF3B009607F0B1FB2A4B2A002B80C2
:1019E000217902232068009607F0A8FB2F80217937
:1019F00002232A002068009607F0A0FB01F0A4FF54
:101A0000002900D10FE1FA220023920002F0F6FA39
:101A100080460126832399466B464A4600275A7220
:101A20007A3A2179012320686A44009607F086FB00
:101A30000123217920682A00009707F089FB2B7881
:101A4000002B21D101F080FF00290BD0FA220023C6
:101A5000920002F0D3FA4346E788C01A8742D9D2EF
:101A60000020D9E0FA21890002F08AFA4346C01A20
:101A7000E3889842CED9F3E7FF010000FF0600009B
:101A8000FF070000946B00008423FF332B80823B10
:101A900021792A002068FF3B009707F04FFB922333
:101AA0006A46D3720B2221792068913B00966A44E2
:101AB00007F044FB217901232A002068009707F0F2
:101AC00047FB81232B8021792A0020687F3B0097E8
:101AD00007F034FB564B2A002B8021790223206823
:101AE000009707F02BFB4A466B46DA72783A217969
:101AF000012320686A44009607F020FB2179012326
:101B00002A002068009707F023FB4A462B782A70AA
:101B10007F3A93436B702179904602232A00206814
:101B2000009707F00BFB434B2A002B80FE3B2179EB
:101B30002068FF3B009707F001FB80235B002B80B0
:101B400021792A002068FE3B009707F0F7FAFF236F
:101B50002B8021792A002068FD3B009707F0EEFAE0
:101B600080232B8021792A0020687E3B009707F094
:101B7000E5FA314B2A002B80217902232068009757
:101B800007F0DCFA842399466B464A469A727A3A01
:101B90002179012320686A44009607F0CFFA217961
:101BA00001232A002068009707F0D2FA4A460C2643
:101BB0002B782A70743A93436B70217902232A00A0
:101BC0002068FF36009707F0B9FA2E8021790223AA
:101BD0002A002068009707F0B1FA184B2A00E3604A
:101BE000174B20682B8021790223009707F0A6FA73
:101BF00043462B801A33AB7021792A0020681B3BA7
:101C0000009707F09BFA2E802179206802232A0092
:101C1000009707F093FA012005B0F0BCBB46B2462E
:101C2000A946A046F0BD414602F0AAF98046F0E67A
:101C3000FF060000FF0100000A040000E880000029
:101C400001E8FFFFF0B5CE464746C023002604005A
:101C500080B585B003AD5B002B807F3B2A00FF3B46
:101C60000F0001790068009607F068FA364B2A00E9
:101C70002B80FE3B21792068FF3B009607F05EFA3F
:101C80002E80217902232A002068009607F056FA58
:101C90009122237A2A706B70217902232A0020680E
:101CA000009607F04BFA80235B002B8021792A00F5
:101CB0002068FE3B009607F041FAFF232B80217934
:101CC0002A002068FD3B009607F038FA80232B801D
:101CD000217920687E3B2A00009607F02FFA2368BE
:101CE000984623799946002F21D07800C0190D21FC
:101CF000800002F045F904232B7083B21B0A6B703D
:101D0000A87003232A0049464046009607F016FAB9
:101D10008023DB002B802179206802232A00009693
:101D200007F00CFA05B0C0BCB946B046F0BD802340
:101D30009B002B80FF3B2A00494640460097FF3B13
:101D400007F0FCF9EEE7C046FF010000F0B5C6461B
:101D500000B584B0040001F0F7FD00295DD0FA223F
:101D60000023920002F04AF90600012703AD132375
:101D70006A4693720A2221792068123B6A440097CE
:101D800007F0DCF9002321792068984600932A00A7
:101D9000013307F0DDF92B785B0718D101F0D4FD92
:101DA00000290BD0FA22E38892009846002302F023
:101DB00025F9801B8045DAD21B4E29E0FA218900E3
:101DC00002F0DEF8E388801B9842D0D9F4E71E23A6
:101DD0006A46D3720B22217920681D3B6A44009722
:101DE00007F0ACF9434621792A00206800930233BA
:101DF00007F0AEF90C23FF332E882B804346217960
:101E0000206876BA00932A000233B6B207F096F93A
:101E1000300004B080BCB846F0BDFA21890002F061
:101E2000AFF80600A1E7C046FFFF00000022014B0B
:101E30001A707047F6E8022010B5052A1BD8104B1F
:101E400092009B589F460F4804F0BCFB10BD0E4803
:101E500004F0B8FBFAE70D4804F0B4FBF6E70C48D1
:101E600004F0B0FBF2E70B4804F0ACFBEEE70A48E5
:101E700004F0A8FBEAE71100084804F027FCE5E7B6
:101E8000E409021058E90110A4E9011094E80110D6
:101E9000C8E8011004E9011030E90110D0E901108F
:101EA000F0B5C64600B5154D060028680C0084B094
:101EB00000281BD01BF002F9002817D0104B1F7808
:101EC0009846002F12D120001BF054FD83B22868E1
:101ED00001250C4A310002920397220001970095D8
:101EE0001AF0CAFA011E05D143461D7004B080BC29
:101EF000B846F0BD044804F0E9FBF7E7B42400203D
:101F0000F6E802202D1E0010FCE9011030B5184C37
:101F100093B002A9200014F02FF9164804F052FBE8
:101F20002100154804F0D2FB1AF05AFC134C206033
:101F3000002818D00AAD124B2021124A280004F0C4
:101F400057F91822002104A802F0F2FC03AA206825
:101F5000019200220C4B009202A90C4A03951AF040
:101F600047FC13B030BD0A4804F02CFBF9E7C0462B
:101F7000C4E7011020EA011040EA0110B424002057
:101F800084EA011090EA0110391E00105B0700007E
:101F90005CEA0110064B00201B6810B5002B05D031
:101FA00018001BF08BF8431E9841C0B210BDC0460C
:101FB000B4240020F0B5C646431E00B50A3314D839
:101FC000072304001A000834224023426CD0130077
:101FD000093BA34209D31030841A08F0A9FC374A00
:101FE00027001568002D28D10EE008F0A1FC334A27
:101FF0001368002B06D0002508F0A2FC280080BC46
:10200000B846F0BD0027002407202D4D2B002900E5
:10201000284245D100202B4E706031602A4EB446D4
:1020200007266544B5431560284AEB1A1360284A11
:102030006860286013604B600D60002FDBDD244F6B
:102040003E68A642D7D31F48036804E01A68002AF6
:1020500004D0180013005968A142F7D3AB42CAD08C
:102060001D001A680835904602600A1B102A05D91F
:1020700019194A6042460A6001602100134A761A23
:1020800010683E60864200D21660802212060A4323
:102090005A6000221A600F4A136801331360ABE7DD
:1020A000EB1D83431900B5E708F042FC034A270003
:1020B0001568002DA8D0002CC1DA9CE7E0D30020E1
:1020C000B0E700208CE80220F8FF01005CE8022065
:1020D00050E8022068E8022070B5002804D00838D3
:1020E00043680400002B00DB70BD0268002AFBD1AE
:1020F0005B005B084360050008F01AFC184A616841
:1021000013685B181360174B1A001B689C42FBD8BE
:1021100050681618B4420DD0601883421AD023605C
:10212000AA4200D01560104A13680133136008F00A
:1021300007FCD9E70918501851608342F3D10B48C6
:10214000150000689842EED058681B684118696015
:102150002B60E5E7054800688342F5D1DFE7C0461C
:1021600050E802208CE802206CE80220E0D3002036
:10217000D0231B061B68AC4A9900F0B5DE468B469F
:1021800051585A4253412F2257464E4645465B42CC
:1021900093439A46A54BE0B59C4683B00026019137
:1021A000E244002938D0A24B99465246F30808333E
:1021B0009B009D580123340098460836002D22D0FC
:1021C0000F212000294001342D09002919D04B4648
:1021D0005A469A580300C240203BDB171340424640
:1021E00013420CD107220F000240920097403A00A0
:1021F000C308904F3C339B00DA51019B9847002D58
:1022000001D0B442DCD3202ECFD103B0F0BCBB460A
:10221000B246A946A046F0BD854E5F4600210F2379
:10222000B346CC0822005046083292001258002AC9
:1022300000D1D0E0180010408046100913421AD097
:102240005D46ED59A94620256D42AC468C44654655
:10225000ED17AC464D46CD40A94665464E46354045
:102260000126354204D14646724D3C34A4006651E5
:10227000002800D1AFE01C000440A446140A034229
:102280001AD0481C80465846C059464681464D469D
:102290000800F5401F38C01728400125284208D102
:1022A00065462D01AC46F0086646624D3C30800024
:1022B0004651002C00D18EE0180020408446100BBF
:1022C000234211D08C1CA0465C46E4594646A146E8
:1022D0004D460C00F5401E3CE4172C4001252C42D5
:1022E00000D182E0002876D01C000440A446140CE3
:1022F000034210D0C81C80465846C0594646814605
:102300004D460800F5401D38C017284001252842D9
:1023100075D0002C5FD0180020408046100D23425D
:102320000ED00C1DA4466546414CE459EC40A14634
:102330000C004D461C3CE40F2C426AD000284AD0C9
:102340001C000440A446140E034218D0481D8046C9
:1023500045463748C059E840814608004D461B387D
:10236000C00F284209D165462D05AC464046664659
:10237000C008304D3C3080004651002C2BD0180056
:1023800020408446120F23422AD029488C1D8146C2
:10239000C059E0408046080045461A38C00F284220
:1023A00006D1E0086446234D3C30240680004451A9
:1023B000002A10D04846C059CC1DE0408446080091
:1023C00065461938C00F284205D1E0083C30194C49
:1023D0001207800002510831202900D021E714E7BC
:1023E000002AF8D012488146E4E765462D02AC4643
:1023F000F40866460F4D3C34A400665172E765460A
:102400002D03AC46F00866460A4D3C30800046512C
:102410007FE745462D04A84664464646E408054D38
:102420003C34A400665189E79824002030410140E3
:1024300028E6002000400140094A83009A1810B5A0
:1024400014684022544080322240064CC000A4460A
:1024500063441A60044B9C466044416010BDC04612
:1024600004C0014004D0014000400140074B8000FF
:10247000C3181B68C90092000A435A400C2313403A
:10248000034A9446604403607047C04604C001405C
:1024900004D001408000002905D0064B9C46022351
:1024A000604403607047044B9C4602236044036011
:1024B000F8E7C04604E0014004F00140D0231B06C9
:1024C0001B6830B50500584243412F205B428343CF
:1024D0000E48EC08844607202840800081402000F8
:1024E0000B4D3C3063448000A40041511B19002A6D
:1024F00005D08022920194466344196030BDC02209
:102500009201944663441960F8E7C04630410140A7
:1025100000400140F8B545469846D0231B06DE46EC
:102520001C689B462B4B57469A46A3004E4699463D
:10253000E0B5534616004A469B5807000D00002B95
:1025400034D04346002B3FD053464A46414699502B
:10255000D0231B061C6863425C412F220720634284
:1025600093431D4A38409446FA0811008000854084
:102570003C311A486344890092000D509B18002E8C
:102580000ED0802292019446634401210D201D60EB
:1025900000F074F9F0BCBB46B246A946A046F8BDAF
:1025A000C0229201944663441D60F3E74346002B2A
:1025B000D1D0534641460D2099500022084900F0E1
:1025C000BFF95B461C68C6E70D20054900F0B2FA6A
:1025D000BAE7C04698240020304101400040014045
:1025E00071210010D023F0B5C6461B0698461B6823
:1025F0000C4F9B001600FA5804000D0000B5104265
:1026000009D1290014430D203200FC5000F098F944
:1026100080BCB846F0BD01F0A7FB43461B689B0099
:10262000FA58EEE728E6002010B504000D2000F06F
:1026300081FAD0231B061B6802499B005A58A2430B
:102640005A5010BD28E600200123D02283401206F4
:1026500093629361094A83009A181168402251409D
:1026600080320A400649C0008C4663441A60054B1C
:102670009C460523604443607047C04604C0014047
:1026800004D00140004001408023DB051868000FA2
:102690007047C0460FB400B5084883B003F092FFFE
:1026A000049B002B07D005A91800019103F0C6FD7B
:1026B000034803F087FF012003F0D8FD9CEA0110D6
:1026C000E0E0011010B50148FFF7E4FFACEA0110AB
:1026D000EFF3108072B6034A1368002BFCD0BFF3EF
:1026E0005F8F70472C0100D0BFF35F8F0022024B39
:1026F0001A6080F3108870472C0100D070B5EFF39A
:10270000108C72B60D4D2B68002BFCD0BFF35F8F81
:102710000724CB08C618C05C01230C40A3401C0052
:102720000440034207D118433070BFF35F8F2C6021
:102730008CF3108870BD1000FFF7ACFF2C0100D0A7
:10274000F8B54746CE46884680B5EFF3108C72B692
:102750001C4D2C68002CFCD0BFF35F8F9A4222D80E
:1027600007210126894602E00132934218D34D46E3
:1027700037001540AF40D4080119045D2742F3D15A
:1027800010003C430C70BFF35F8F00220D4B1A60AA
:102790008CF3108800280EDBC0BCB946B046F8BDEB
:1027A00001204042EFE7BFF35F8F00232B608CF3E3
:1027B0001088012040424346002BEDD00898FFF7D7
:1027C00069FFC0462C0100D030B5EFF3108C72B613
:1027D0000A4C2368002BFCD0BFF35F8F0723012234
:1027E0000B409A40CD08435D93434355BFF35F8F41
:1027F000002323608CF3108830BDC0462C0100D02C
:10280000044A1078431CDBB2172B00D91023137035
:102810007047C046A211002010B5064B064C82B08E
:102820000100009318221F232000FFF789FF02B048
:1028300010BDC046BCEA0110A82400200021044BB2
:10284000044ABFF35F8F02C39342FAD17047C04678
:10285000000100D0800100D0054B064A1360064AF3
:10286000136053609360D360136153619361704749
:102870008080808000E400E004E400E01F23184032
:102880001E3B8340002905D0C021044A4900535013
:1028900013607047802201498B50FAE700E100E0A5
:1028A00001228240034B1B6813405A1E9341D8B249
:1028B0007047C04600E100E001238340014A1360F5
:1028C0007047C04600E200E0064B10309B68800075
:1028D000C358054A00209B1A2F229A424041C0B299
:1028E0007047C04600ED00E0A411002070B50D0057
:1028F000EFF3108672B60F4A1368002BFCD0BFF3BB
:102900005F8F0D4B10309B6884001B590B4A93421C
:1029100003D09D4201D001F027FA074B9B681D515F
:10292000BFF35F8FBFF35F8F0022024B1A6086F305
:10293000108870BD240100D000ED00E0CD01001032
:10294000F0B557464E46DE464546E0B585B0060032
:1029500000911700EFF3108B72B66A4A1368002BD0
:10296000FCD0BFF35F8F0025674B5D579A46002D63
:1029700000DAA9E06B00654C01935B199B00984657
:10298000A146C1444B4652469B7910361370604BAA
:10299000B6009B6899590B1B2F2B33D95D4B99427D
:1029A00000D0ACE0019B42469C465B4B6544AD00C9
:1029B00063535A4B0232A218043B9B1A1B05584A18
:1029C0005B0D651913436B80564B0121AB80FF23D0
:1029D000AB71009BEF71AB604B460B4319004C4B46
:1029E0009B689951BFF35F8FBFF35F8F0022454B08
:1029F0001A608BF3108805B0F0BCBB46B246A946FE
:102A0000A046F0BD01200A008243D3798C46BB4228
:102A100031D84546130044491B1B5B415943090DFE
:102A20003D4B63533D4B02356519043B5B1B1B0556
:102A30003B4D5B0D2B43AA464D466B800425AC46AF
:102A40005546E044131F44441B1B1B055B0D1D43EF
:102A50004B46997100999D8099604946DF71334BCF
:102A600001431360BBE75800C01880002018C179EB
:102A7000B9422FD902000623D356002BF3DA029372
:102A80002B4B61460393131D9A4604235B429C46DD
:102A9000E14450464B461B1A1B055B0D9C46204BE0
:102AA000957198466346404603439380019B5A19AB
:102AB0009200039BA418A380029B1C4AA371009B55
:102AC0002260E771A3608AE701F04EF900255346C2
:102AD0005D574FE7908802934005131D9A460315F2
:102AE00061469C464046D444634604302018181A78
:102AF000E0230005400D1B0218430390C5E701F0D9
:102B000033F94FE7240100D0F0E80220A41100209F
:102B100000ED00E0CD01001000A1FFFFD411002066
:102B200000E0FFFF01BDFFFFAAAA000001488047A7
:102B300001BD0000F0B5DE4657464E464546E0B5BD
:102B40000C0083B0EFF3108872B6634A1368002B51
:102B5000FCD0BFF35F8F614B61499A68030010336B
:102B60009F00D55901938D4243D0A54254D05D4E6C
:102B7000AA1B2F2A3DD85C4B9B461B689946012314
:102B80001A009C4682404B4613401F2299466346DA
:102B9000024093409A4680225B4650469850BFF3CD
:102BA0005F8FEFF305839B46002B37D0019B5B457E
:102BB00001D001F0D9F801232A009A439068844299
:102BC00008D176E04B005B189B00F31898688442AC
:102BD00036D01A00062151560029F3DA844254D027
:102BE0004B46002B27D0C02251463F4B52009950F4
:102BF00019603A4B9B68DD51BFF35F8FBFF35F8F66
:102C00000022354B1A6088F3108803B0F0BCBB4635
:102C1000B246A946A046F0BD0D00EAE72A00634689
:102C20009A4390688442D5D106201056130000289C
:102C30000ADA0D0031E0802351462B4AD150D8E703
:102C400006201856002821DB42001118890074184C
:102C50008B46A1689960E179D97106216156997115
:102C6000002924DBA488F11A640524155C440919A1
:102C700009051E4C490D2143998013181C4A9B00DD
:102C80001178F31899711070AAE7130059460029BA
:102C900014D1FF3191711749918015490A789A71C1
:102CA000154A9B1B5B415A43120D0A7098E7114964
:102CB000E2E70620105613000028C5DA0F4A104933
:102CC000D21A083A5002400D014399800D4952082A
:102CD0000A43DA8084E7C046240100D000ED00E01A
:102CE000CD010010A411002000E100E000E0FFFF92
:102CF000F0E8022001BDFFFFAAAA0000DE110020BB
:102D000000F0FFFF00F8FFFF10B583080400032068
:102D10002040FF24054AC0009446844081409B0027
:102D200063441A68A2430A431A6010BD00E400E03D
:102D300070B501240443EFF30581EFF3108C72B6F4
:102D4000214A1368002BFCD0BFF35F8F1F4B050097
:102D50001F4AED1A6D416A43120D1E4D8900AE687F
:102D600052B27658A6421CD00621595691421CD028
:102D700012215956914222D01E215956914220D0FB
:102D80002A2159560324914210D0134B19781A70F6
:102D90008171BFF35F8F00220B4B1A608CF3108898
:102DA00070BDAB680D4C5C50EFE700246100091961
:102DB00089005B18FF21997109499980E5E7012491
:102DC000F4E70224F2E7C046240100D0A411002059
:102DD000AAAA000000ED00E0F0E80220CD010010FA
:102DE00001BDFFFF1F2110B5091A0248FFF7ECFCD7
:102DF00010BDC046FCE8022010B5084B084C82B05C
:102E000001000093002205232000FFF799FC002811
:102E100001DB1F23181A02B010BDC046D8EA01100A
:102E2000FCE8022070B504000E001500FFF7E8FC76
:102E30000100200000F006F8A680E580BFF35F8F58
:102E400070BDC046024B9C466144890001607047DA
:102E500040000034F8B5124C124DAC4212D201269B
:102E6000002776422368002B0DD0FFF7C9FC010034
:102E70002000FFF7E7FF66602772BFF35F8F0C3417
:102E8000AC42EFD3F8BDFFF7BBFC01002000FFF719
:102E9000D9FF6660BFF35F8F0834AC42E2D3F1E73D
:102EA000381800204818002010B50400FFF7A8FCCF
:102EB00001002000FFF7C6FF01235B426360BFF300
:102EC0005F8F10BD10B50400FFF79AFC01002000D1
:102ED000FFF7B8FF01235B42636000232372BFF357
:102EE0005F8F10BD10B504000120FFF795FC034B68
:102EF000C3189B002360BFF35F8F10BD40000034F8
:102F0000034B9C46614489000160BFF35F8F7047AB
:102F100040000034F0B5DE4657464E464546E0B523
:102F200087B0EFF30583032201251A4095409100F5
:102F30008846A946B34B03925C58B34B1D60B34B14
:102F400004934B46B24843630823E55E002D37DA0D
:102F5000A3881BB2002B00DBADE0A379002B00D0CF
:102F6000EEE00823E05E002820DB430062691B18C6
:102F7000DB00D3189E68DD68731C00D111E1A44802
:102F800001004144826A0B69B71A9B1A9F4215D30C
:102F90000123026A039883401A420FD09C4800F034
:102FA000CBFC8D4202DCCCD18642CAD940BF07B0EF
:102FB000F0BCBB46B246A946A046F0BD0E61EDE7A7
:102FC00062696B0092465B19DB009A4453469E6827
:102FD000DF6800F0B1FC8F42BADC00D103E1002FC2
:102FE00000DAE8E05246534652691B699346049A58
:102FF000934200D1D9E052460821605E5288000415
:10300000594610439847009001910099019A0B008E
:103010001000134300D1CEE013000A00B61A9F41FE
:10302000002806DB7A4800F087FC009E019F3618D6
:103030004F4153469E60DF6000229A5E002A00DA0C
:1030400086E7530099186069C900411802938B689C
:10305000C9689B46B94200DD7AE702D1B34200D984
:1030600076E708239C46A444059565462281A4463C
:10307000029B2C0006E053009918C90041188D6886
:10308000C968AB469B18DB00C318B94206DC00D107
:10309000B3E01C000023E25E002AECDA2300644661
:1030A0009C4653461A806346059D1D80A3881BB22B
:1030B000002B00DA51E72269EFF3108172B6136832
:1030C000002BFCD0BFF35F8F0123A7885B42A38056
:1030D0003FB22369BFF35F8F00221A6081F310882B
:1030E000002F00DA39E72300083322009A46666988
:1030F0007B00DB19DB00F318996850468C460824E6
:10310000115FDD68002910DB029306E0AB4244D07A
:103110000023E15E2000002906DB4C006418E40077
:103120003419E368AB42F1DD029B078000201F5E8B
:103130001980002FDCDA1400A379002B00D110E7EE
:103140000023A37126000823E15E08364B1C00D142
:103150002CE70800A246656902E03E004B1C1AD02D
:103160004B005B18DB00EF180A008C46E95E7B8899
:103170001BB2002BF1DA01235B42DC17BB60FC6061
:10318000824205D0534631801B893B8053461A81C9
:1031900060464B1CE4D15446E5E6A3686345B7D9C5
:1031A000C2E76B1C00D0EAE6F8E65B4658461B69AE
:1031B000984700281BD153461B8822692381EFF3CF
:1031C000108372B611680029FCD0BFF35F8F51469F
:1031D00062880A8022696580BFF35F8F00211160D9
:1031E00083F31088B4E6864200D8F8E6B0E65B4682
:1031F0001A685B680092019307E7B34500D848E777
:103200004CE7C046BCD300203C700540152F001091
:1032100000400540074810B50268EFF3108172B610
:103220001368002BFCD0BFF35F8F06F033F900204A
:10323000002110BD4CE7002070B52E4C2569002DF3
:1032400004D00A212C48FFF7FDFD70BD2B4E032151
:10325000300000F04DFBE660FFF7D2FA284B032266
:103260009C46D02322701B061B6801216370254BEE
:103270006044A3600F2380002061022063806369A3
:103280004942A18019800231198647311D83585265
:1032900018315A5275325C399952183201319952AB
:1032A00018320131995218320131995208351832C9
:1032B0009D52023118329952183201319952183206
:1032C0000131995218320131995218320131995213
:1032D0001832013199520C4B0C49DC6001303562D7
:1032E000FFF704FB01210320FFF7C8FA084B1D601C
:1032F000A7E7C046EC1100204CE700200040054045
:1033000040000034FFFF1000BCD30020152F001038
:103310003860054000487047EC110020F8B5050002
:1033200018200F0001F0ACFA041E3ED0182138001E
:1033300001F0C4FA01216061280000F0EDFAE560B7
:103340000600FFF75DFAD022267012061268184BAD
:1033500062709C460122BBB252426044800063818D
:103360009B1820612281A2806380002F0BD07900FE
:103370006269C919C9000F4B8918138001331832CB
:103380009BB28A42F9D10127B7400B4BB200300003
:103390000A492F62D450FFF7A9FA01213000FFF744
:1033A0006DFA074B9C4665442F602000F8BDC0466F
:1033B00040000034FFFF0000BCD30020152F001098
:1033C00038200000124B70B5040098421ED0012234
:1033D00005781049AA408C46C36801211A626344EB
:1033E0001A602800FFF74AFA0B492800FFF7A2FBF2
:1033F000280000F087FA00212278084B60699200CB
:10340000D15001F07DFA200001F07AFA70BDC0467B
:10341000EC11002038300000152F0010BCD3002024
:10342000F8B51F0008AB1B7804001600002B08D16C
:1034300000F08AFA32003B00121A8B41002B00DAAE
:1034400052E02269EFF3108072B61368002BFCD0B3
:10345000BFF35F8F0223E15E63694A005218D20016
:103460009B182269002936DB1D886580BFF35F8FBA
:103470000025156080F31088069A9E60DF601A614F
:10348000079A5A615A8801325204520C101C002AC1
:103490001FD082B25880080410432669EFF31087CA
:1034A00072B63268002AFCD0BFF35F8FA2881A8000
:1034B000A1802369BFF35F8F00221A6087F3108811
:1034C0000A4923788C4601329A40E36863441A60C3
:1034D000F8BD0120DDE7BFF35F8F0023136080F3A9
:1034E000108801204042F3E70020F1E73C20000073
:1034F00070B501000469EFF3108C72B620680028E3
:10350000FCD0BFF35F8F02200D5E4C69680040194C
:10351000C00024180869002D36DB26884E80BFF3D2
:103520005F8F002606608CF31088E3606388049840
:10353000013320615B0405985B0CA26060611A1C7A
:10354000002B1FD093B22804628018430A69EFF35E
:10355000108C72B61368002BFCD0BFF35F8F8B8882
:1035600023808D800B69BFF35F8F00221A608CF37C
:1035700010880B7801329A40CB6808498C46634426
:103580001A6070BD0122DDE7BFF35F8F0023036087
:103590008CF3108801204042F3E7C0463C20000035
:1035A00010B543890A1493421ADD53009B184269EF
:1035B000DB00D3180469EFF3108C72B62268002A7E
:1035C000FCD0BFF35F8F5A88090494B2090C8A4279
:1035D00008D00369BFF35F8F00221A608CF3108854
:1035E000002010BD8022120214435C800123026976
:1035F0008371BFF35F8F002111608CF31088044941
:1036000002788C469340C268012062441360E8E768
:103610003C20000040787047F0B54746CE46060093
:1036200080B596246442E5170F00A4197D4183B04C
:103630008D4215D812D000F087F922002B00121A03
:103640008B41002B16DC002B40D03000390000F0FD
:1036500085F903B0C0BCB946B046F0BD8442EAD992
:103660000024002500F070F922002B00121A8B4173
:10367000002BE8DD00F068F922002B00121A8B41C4
:10368000002B0ADB00230193124B22000093124807
:103690002B00FFF72DFF0130D7D0A846A1460F4DD4
:1036A0000F4C6B6A984504D8AA6A4A45CDD2984512
:1036B000CBD12268EFF3108172B61368002BFCD0D7
:1036C000BFF35F8F200005F0B1FEEAE7002ABCD00F
:1036D000D0E7C04615320010EC1100200040054034
:1036E0004CE70020F0B5CE46474680B583B00400D5
:1036F00000F02AF9FA2206000F0020000023002122
:10370000920000F0B7FF8019794104000D1E02DA23
:1037100001242D4D644296267642F71736196F41E3
:10372000AF4215D812D000F00FF932003B00121A48
:103730008B41002B18DC002B43D02000290000F027
:103740000DF903B0C0BCB946B046F0BDA642EAD9F7
:103750000022002316001F0000F0F6F832003B00A4
:10376000121A8B41002BE6DD00F0EEF832003B0030
:10377000121A8B41002B0ADB00230193134B3200FA
:10378000009313483B00FFF7B3FE0130D5D0114B37
:10379000B1469846104E736A9F4204D8B26A4A45B1
:1037A000CBD29F42C9D143461A68EFF3108172B65B
:1037B0001368002BFCD0BFF35F8F404605F036FE48
:1037C000E9E7002AB9D0CFE7FFFFFF7F15320010ED
:1037D000EC1100204CE7002000400540F0B55746B2
:1037E0004E46DE464546E0B506000F0085B0EFF3D5
:1037F000058399468B46002B12D0384900204B6A2E
:10380000BB4206D38A6ADB1B591E8B41B242404140
:10381000184305B0F0BCBB46B246A946A046F0BD71
:103820002F4B9A46DB68984653461B7840460393D5
:1038300000F082F84246039B040004339B009B582F
:103840000D001B1A39003000001BA941894510DC0E
:103850000DD020BF214A0020536A5B45D9D3926A1C
:10386000DB1B591E8B41B24240411843D1E78342D2
:10387000EFD900F069F832003B00121A8B41002B9F
:103880001ADB00230193174B3200009350463B0094
:10389000FFF72EFE011E0FDD104B5A6A5A451BD34F
:1038A0009B6AB34216D35046FFF77AFE0B4A0020BC
:1038B000536A5B45ADD3D2E7084A0020536A5B45A3
:1038C000A7D30020926ADB1BB24240415A1E9341AB
:1038D00018439EE75A45E6D120BFE4E70040054083
:1038E000EC110020153200100048704700400540E0
:1038F00010B5024A0248FEF701FF10BDF4EA0110BC
:10390000AC24002010B5034B01001800FEF75CFF4B
:1039100010BDC046AC24002000B5054B83B0009319
:10392000002203230348FEF70BFF03B000BDC0468F
:1039300018EB0110AC2400200300416A0A00986AC9
:10394000596A8A42FAD17047034B596A0A00986A49
:10395000596A9142FAD1704700400540064A536ABD
:103960009942FCD807D1044B02E05A6A914202D135
:103970009A6A9042F9D8704700400540F8B5DE4693
:103980004E4657464546E0B58B4605000A99180055
:10399000160000F0F5FA0A9B6C001F02324B641906
:1039A0009C46A4006444636881469F4200D96760D6
:1039B0002B1FDBB29846012B30D9C02380229B01FC
:1039C000E31812011A60294BAD0059599A46002993
:1039D0001BD17301E026226853401E4080234246DB
:1039E0005B01E3181E60012A30D9802380229B01ED
:1039F000E31812011A6053464A4667605A51F0BCF8
:103A0000BB46B246A946A046F8BD586900F0B8FAD0
:103A1000013043001B18033BFDD2DAE75B46012B64
:103A2000CBD1C02303229B01E3181A60023AA3689A
:103A30001A42FCD07301E0262268AD0053401E40BC
:103A400080230A4A5B019246E3181E605A462168A9
:103A5000514003220A401A6001225B469A40A36843
:103A60001A42FCD0C1E7C04600800040B8240020C4
:103A7000F0B546464F46D646C0B51F00344B44000D
:103A80009C462418A4006444636888461600FF2BF3
:103A900002D880235B006360031FDBB29A46012BD0
:103AA00030D9C02380229B01E31812011A60294BF0
:103AB00085005959994600291BD17301E0262268D7
:103AC00053401E40802352465B01E3181E60012ACA
:103AD00030D9802380229B01E31812011A608023D1
:103AE0005B0063604B465F51E0BCBA46B146A846F6
:103AF000F0BD586900F044FA013043001B18033B45
:103B0000FDD2DAE74346012BCBD1C02303229B0130
:103B1000E3181A60023AA3681A42FCD07301E02647
:103B20002268850053401E4080230A4A5B0191466B
:103B3000E3181E6042462168514003220A401A6081
:103B4000012342469340A2681342FCD0C1E7C0461D
:103B500000800040B8240020014B8000C05870470E
:103B6000B8240020F8B5040021481E0017000D00FD
:103B700000F006FA0100380000F002FA069B360455
:103B80001B031E432368002B20DB1A4B1A49E31842
:103B90005A1E93418022920194465B421B0B174AA6
:103BA0001B0363441360164A13601F000A6897439F
:103BB000FBD1144B2560E2182123A0601360236819
:103BC000002BFCDA0823E6601360F8BD3F2322686F
:103BD0001340AB42D9D1A3681B051B0D8342D4D13E
:103BE000EE22E368D2021340B342CED1EDE7C046E5
:103BF000001BB7000040FDBF08C0004000E00040CF
:103C000000F000400430000010B580241C4BE40597
:103C10001C6000281AD001231A4C18431A4BDC618F
:103C20001A4C44401C62596298628021144BC905A9
:103C30001960174817490860E021C9041960002A73
:103C400007D18022144B12061A6010BD0E4BD861AA
:103C5000EBE753019B1A9B009A18802312015B0427
:103C60009A4209D213000D490B60074B5A6080221B
:103C7000094BD2051A60E8E7094B1A00F3E7C04682
:103C800000B00540D3C007B0008005402D3FF84F7D
:103C9000FCFF01000820014000A005406C39002015
:103CA000FFFFFF008023024A9B000B43D362704753
:103CB00000800540002310B50100988A1B8B9847AF
:103CC00010BDC046162310B50100188802331B88AA
:103CD000984710BDF8B54746CE4680B50F1E18D0A0
:103CE00014239946043304000025012698464B46C8
:103CF0001888434621681B88984701C4431E984191
:103D000001350640AF42F2D13000C0BCB946B046E2
:103D1000F8BD0126F8E7C046002370B504000D0089
:103D2000988A05491B8B984703000020002C01DB73
:103D30000130A0402900984755420000AA23064AB6
:103D40001B0113608D235B00D3600449044B196091
:103D50005368002BFCDA70470040024000B0FA00C4
:103D6000006002407047C04610B50148FEF792FC63
:103D70002CEB011070B5074D074EB54209D2002457
:103D8000013E761BB60808CD984723000134B342A4
:103D9000F9D170BDA8DD0110E4DD0110054B064A24
:103DA00006491A60064A074B1A6010000B689843D0
:103DB000FBD1704700E00040BFCDFBFE08C00040D3
:103DC000FE7F3C0000F00040044BDB6C002B03D175
:103DD0008022034BD2021A607047C0460000115087
:103DE0004C201150044A054B1A60054A1368DB0148
:103DF0008033FBD17047C046FFFFFF0100F0004059
:103E000008C000404022034B9A675A671A67DA6677
:103E10007047C04600F0014010B5FEF70FFD10BD21
:103E200070B5044D044CA968C022200000F086FD46
:103E3000AC6070BD00ED00E000000020002310B574
:103E4000294C82B0A367FFF779FF0122274B1A6044
:103E5000636C012BFCD10322254B1A60224A936B21
:103E6000012BFCD1013300930121224A2248043363
:103E7000FFF778FE052301210093204A2048FFF731
:103E800071FE0022022104201E4BFFF7F1FD0022EB
:103E9000012105201C4BFFF7EBFD0022002107202C
:103EA0001A4BFFF7E5FD002200210820174BFFF712
:103EB000DFFD8023DB000093002200210920134B4B
:103EC000FFF75CFD0022104B00210620FFF7D0FD1C
:103ED0000420FFF741FE0E4900F052F801000020D7
:103EE000FFF7E0FE02B010BD008000403CB0004093
:103EF00030B00040002F685900800240008C864797
:103F000000C00240001BB70040597307006CDC0280
:103F100040420F0001480421014B184710120020B5
:103F2000D53C0010014B9B68184700001012002080
:103F3000124A936F9B0815D29066D166002905D06E
:103F4000FFE7FFE7FFE7516F106F704704B580216F
:103F50000906C2175140002800D0C84319F0C4FE1A
:103F6000002104BDF0B5146E556E576F166FFFF744
:103F7000E3FF1466556657671667F0BD000000D072
:103F8000114A936F9B0813D210665166002905D021
:103F9000FFE7FFE7FFE7516F106F704704B5002898
:103FA00001D00020C04319F09FFE002104BDC0468F
:103FB000F0B5146E556E576F166FFFF7E5FF146678
:103FC000556657671667F0BD000000D094464A4A10
:103FD000926F9208624601D228E0C046F0B5464E84
:103FE000346E756E776F366F00F020F89446424A53
:103FF00014665566576716676246F0BD94463E4A9A
:10400000926F9208624601D254E0C046F0B53A4E33
:10401000346E756E776F366F00F04CF89446364A02
:1040200014665566576716676246F0BD002B24DBA1
:1040300011D000293EDA00B5C943404200D1013118
:1040400000F038F8C943404200D10131DB4352420D
:1040500000D1013300BD002AEBD1002801D1002995
:1040600005D00020C90FC90701D1C043410800B5E0
:1040700019F01AFE0022002300BD00B500290ADB5A
:10408000DB43524200D1013300F014F8C9434042EF
:1040900000D1013100BDC943404200D10131DB43B1
:1040A000524200D1013300F005F8DB43524200D107
:1040B000013300BD002923D1002B18D1002A0CD0D8
:1040C000BC460D4F38667A6600210023FFE7FFE704
:1040D000FFE77A6F386F67467047002801D00748BE
:1040E000010000B519F0E0FD0022002300BD020030
:1040F0000B00002000217047000000D0FFFFFFFFF1
:10410000002B00D0BFE0130C28D1002AE7D080B4E8
:10411000114F39667A66FFE7FFE730B4040C7B6F16
:10412000396F1B0423433B667A66FFE7FFE7FFE72F
:10413000C04684B27B6F3D6F1B0423433B667A66A7
:10414000FFE7FFE7C04600232C042D0C7A6F386F81
:1041500000196941B0BC7047000000D0F0B594462A
:104160000025140E01D112020835140F01D11201DD
:104170000435940F01D192000235D40F01D15200C1
:104180000135D40B0134254F7C66254C3C660E0C62
:1041900093B2FFE7FFE7FFE73C6F6643360C770318
:1041A000BE467343DF0B5B04C01AB941130C734363
:1041B000DB18C91ACE086643360CB64493B2734373
:1041C0001F0F1B01C01AB941130C73431F0B1B05B2
:1041D000C01AB941860D8F023E436643360C092D45
:1041E00024DB520A7243801A7703460A6643360C70
:1041F00016235B1BDE40DF40BF1964466643821B0B
:104200007046043506330100D940A840C01900D3D8
:104210000131A24206D20023F0BD0000000000D010
:10422000FFFFFFFF121B0130F3D3F1E709277F1BCC
:10423000FE406446A2B27243801A00D20139220CB9
:104240007243130C1204821A99410B007046043514
:1042500013370100F940A840801900D30131002B29
:1042600002D1A2420AD2F0BD013000D30131121BAB
:10427000FAD2013BF8D1A24200D2F0BD013000D306
:104280000131121BF7E7F0B51C0C00D080E00CB434
:1042900000251C0A04D11B02160E334312020835F6
:1042A0001C0B04D11B01160F3343120104359C0B68
:1042B00004D19B00960F334392000235DC0B02D1F0
:1042C00092185B4101351C00971864410134464F38
:1042D0007C66464C3C660E0CFFE7FFE7FFE7C046F6
:1042E0003C6F6643360C7703BE4697B27743C01BDC
:1042F00000D20139C01B00D201399FB27743C91BDC
:10430000C91B170C77437E04FF0B801BB941CE08F5
:104310006643360C0C2D33DBB644120B1F053A43B3
:104320001B0B97B27743C01B00D201399FB2774372
:10433000C91B170C77433E043F0C801BB941860D07
:104340008F023E43664329277F1BFE400C3D774684
:10435000AF40BF1930BCA2B2ABB272437343801AF4
:104360009941220C7243130C1204801A99410200E5
:104370000B000137001BA941F9D2781E0021F0BDC6
:104380000C277F1BFE4077467F0BAF40FF19E0E70D
:1043900000245D1C07D0144F7D663966FFE7FFE7F8
:1043A000FFE7FFE73C6F95B29EB265436643401B53
:1043B000B141150C1E0C6543664336042F0C3E4379
:1043C0002D04401BB141994204D202000B00200091
:1043D0000021F0BD01D19042F7D3801A99410134F8
:1043E0009942F2D3F6E70000000000D0FFFFFFFF84
:1043F00048404140484018B4134B5B68019308BDE6
:1044000018B4114B1B68019308BD94460F4A926F74
:10441000920805D2624618B40B4BDB68019308BDC5
:104420000A4AF0B5146E556E576F166F6246FFF765
:10443000F2FF064A1466556657671667F0BD18B452
:10444000014B9B68019308BD281A0020000000D092
:10445000FFB550404240504059404B40594000E069
:10446000FFB5154F4C00640D03D0BC4204D10C03C2
:1044700014D80020090D09055C00640D03D0BC426E
:1044800004D11C030AD800221B0D1B0501264B403A
:1044900009D44B4003D58B4200D18242FFBD9942E3
:1044A000FCD19042FFBD0B43DB1803431343F5D00F
:1044B000C9434918FFBD0000FF07000000B5FFF722
:1044C000CFFF804100BDC04600B5FFF7C9FF01D94D
:1044D000002000BD012000BD00B5FFF7B9FF01D9E4
:1044E000002000BD012000BD00B5FFF7B1FF8041F5
:1044F00000BD012040054A00121804D85A001218C5
:1045000001D80020704701207047000000210028DA
:1045100005D17047C1174840401AFAD0C90713B5F2
:10452000064B1B6898470CBC441CA2401005120B9C
:104530000349091B09051943114310BD48E6002032
:104540001F04000010B54C00620D8023D218DB0060
:10455000D21A5B057E2A10DD9E3A13DACC170903C6
:10456000490819435242D140640001341532202ACF
:1045700005DAD0400843604310BD002010BD084656
:10458000604310BDC80FC018013810BD18B4024BED
:104590005B6A019308BD0000281A002010B501488D
:1045A000FEF778F838EB0110132370B51D78012D54
:1045B00019D014DD1D48FFF785FB06001C48FFF7E6
:1045C00081FB1C4C80223100200000F0B7F9022D45
:1045D00006D01948FFF76EFB184B186070BD154CDC
:1045E000174BA364F5E7174B124C23606360A3607D
:1045F000E36023616361A361E36123626362A36299
:10460000E36223636363A363E36323646364A36478
:10461000E36423656365A365E36523666366A36658
:10462000E36623676367A367E367D9E75344000042
:1046300053460000281A00204C33000048E60020B2
:10464000494600109D45001007B5604601880A0ADA
:104650000230DF2AFAD1C9B2820804D30288408826
:104660000004104300E00068014A5050039007BD69
:10467000281A002051434343C9188C46110C83B2B9
:104680004B4310B4040C614392B280B25043624376
:104690001C041B0C001910BC59411304120CC01847
:1046A00051416144704700004840414048400E4B32
:1046B0005B6818470C4B1B6818470C4A936F9B08A4
:1046C00002D2094BDB681847F0B5146E556E576F70
:1046D000166FFFF7F6FF054A1466556657671667AB
:1046E000F0BD014B9B6818474CE60020000000D04D
:1046F00007B548404140484001E0C04607B5420088
:10470000120E03D0FF2A03D1420218D8C00DC005F3
:104710004A00120E03D0FF2A03D14A020FD8C90D56
:10472000C9050122414005D4414001D5814207BD60
:10473000884207BD0143491801D0C043001807BD96
:1047400000B5FFF7DBFF804100BDC04600B5FFF7B5
:10475000CFFF804100BD491A002807D108467047A5
:10476000C10FC90700D54042002817D0F44603B452
:104770000B4B1B68984706BC81409E3840428031F5
:1047800007D20B0607D04900490AC0051043084369
:1047900060470130F8E7490A8902F5E770470000F1
:1047A00048E6002041000A0E80231B067E2A0BDD0E
:1047B0009E3A0BDAC1174002400818435242D040DB
:1047C000490001314843704700207047C00FC018AE
:1047D00001387047C0420DD300B5400040080021A9
:1047E00000F00EF8002801D4404200BD80200006F1
:1047F00000BD0000014BDB69184700004CE60020BB
:10480000014B5B6A184700004CE60020014BDB6F50
:10481000184700004CE6002010B50148FDF73AFFAC
:1048200080E00110132310B510481C78FFF74AFAF6
:104830000100012C0AD003DD80220D4800F07EF833
:104840000C48FFF737FA0C4B186010BD084C542287
:10485000200000F073F82200084980322368002B02
:1048600000D1216004349442F8D1E9E753460000B6
:104870004CE600204C33000048E6002019480010A8
:1048800070B504000A4E300019F07EFA200018F0CE
:1048900083FC0500300019F0FFF9002D05D0054B11
:1048A0002C199C4201D8280070BD0348FDF7F2FE88
:1048B000381800200000042050EB0110F8B5060065
:1048C0000C000C4F380019F05FFA2100300018F08E
:1048D00003FC0500380019F0DFF97443002D05D002
:1048E000054B2C199C4201D82800F8BD0348FDF760
:1048F000D1FEC046381800200000042050EB011003
:1049000070B50400054D280019F03EFA200018F09B
:104910004DFC280019F0C0F970BDC04638180020C1
:1049200001480421014B184720120020D53C0010FB
:10493000014B1B681847000020120020014B5B68E8
:1049400018470000201200209A4200D28854704775
:104950007047C046F8B55746DE464E464546E0B578
:1049600099460A9B07009A460D9B884693460B9CE6
:104970009B073BD10C9B9C423DD21E1B0B94150008
:104980000C005E442A004B46013521002020B84728
:10499000B542F7D1A0460B9C002C20D045463619D5
:1049A0005346321B013C185D29004B46B847002C8A
:1049B000F6D12B00350098460D9B9B070FD55B4623
:1049C000EC1A0C9BA3420AD9464698462A004B464D
:1049D000310020200134B84701354445F6D3280082
:1049E000F0BCBB46B246A946A046F8BD160015006D
:1049F000002CD3D1E0E716001500002CCED1EEE755
:104A0000F0B54546DE4657464E46E0B585B09C4675
:104A100010AB1B78149F934698460F9C129E139DD3
:104A2000BB074CD4002D42D1B44248D201233B40B5
:104A300099460E9B013B9A46302304E052460134CE
:104A40001355A64201D9202CF8D14B46002B00D19A
:104A500083E00E9B013B99463023A54205D82EE00A
:104A60004A4601341355AC4229D0202CF8D1FB061C
:104A70000CD57B0554D4A64263D0A54261D0119BCE
:104A8000102B50D0022B57D0202C32D12023019351
:104A90000E9B5A460093039763460295FFF75AFF11
:104AA00005B0F0BCBB46B246A946A046F0BD012306
:104AB0003B40994601233B422AD1B442B9D3FB067D
:104AC0001CD57B05DBD4002CD5D1119B102B5BD0E2
:104AD000119B022B6BD0302301240E9A1370434696
:104AE000002B10D17B073ED52B260E9A631C165542
:104AF000CDE72300013430260E9AD654202CC5D0A1
:104B00004346002BEED02D260E9A631C1655BEE7A9
:104B10004346002B2FD0013DB44200D289E798E7ED
:104B2000119B102BB2D1BB0637D5202CAED0582309
:104B30000E9A13550134A7E7202CA7D02300013487
:104B400007E0631E012CC0D0119A102A31D0022A2E
:104B5000D1D162260E9AD65496E7FB06CED57B05B8
:104B600000D488E78BE723003E0790D520260E9AD5
:104B7000013316558BE70C233B405A1E9341ED1A27
:104B8000B44200D255E764E7BB060ED478230E9AF0
:104B90000224137030235370A1E7202C00D175E755
:104BA00078230E9A135501346EE75823EFE76033EC
:104BB000EDE70E9AA61E91464E44BA0602D558223B
:104BC000327098E77822327095E7C04610B5002819
:104BD00000D110BD01F0ACFCFBE7C0460B0010B5E6
:104BE000002802D049681B68984710BDF0B55746A9
:104BF000DE464E464546E0B595B083460F009246E8
:104C000098461E9A1F9B10001900209EFFF771FC0A
:104C1000002800D0EAE11E981F990122C54B52429C
:104C2000FFF74CFC002800D014E11E981F990122C8
:104C3000C14B5242FFF758FC002800D0E9E01E9813
:104C40001F990022BD4BFFF74FFC002800D0C8E0A1
:104C50001E981F990022BA4BFFF730FC002800D0A5
:104C6000BFE01E981F9900220023FFF727FC0028B1
:104C700000D0E4E000230B93229B5B0500D40626C2
:104C80000024302307E0172106AA013452181355D7
:104C9000013E202C01D0092EF5D81E981F99FFF750
:104CA00051FCA84BF2009B181A685B68050008923B
:104CB0000993FFF72FFC02000B001E981F99FFF7C6
:104CC0009AFB089A099BFFF7BAFB06900791FFF73A
:104CD0005DFC8146FFF71AFC02000B00069807995D
:104CE000FFF789FB0022984B06900791FFF7FCFB2A
:104CF000002800D10DE101239C46E1444846FFF71E
:104D000005FC02000B0008980999FFF7DDFB00285D
:104D100002D0002399460135002E00D1D9E0069536
:104D20004D46B94614E006AA944617230A21634467
:104D3000280001341F19FFF723F93031397028009A
:104D40000A21013EFFF71CF9092D00D817E10500E3
:104D5000202CE8D14F46069D20240CAE06AA17232E
:104D60009446634499465B46B34606930FE04B4630
:104D700028000A210134E618FFF7DAF8303128005C
:104D800031700A21FFF7D4F8051E00D1E4E0202C91
:104D9000EDD1069B5E469B460323229A1340012BCE
:104DA00018D1219B002B15D00B9B002B00D1FDE0CF
:104DB000219B013B2193202B0CD93023219A07E022
:104DC000172006A9013409180B55944200D3CCE0F2
:104DD000202CF5D1229B01940393219B00960293F2
:104DE00022E0229B52460493219B390003935846AC
:104DF0001E9B1F9C029600930194434600F04AF9C3
:104E00000400200015B0F0BCBB46B246A946A0463F
:104E1000F0BD229B5B070FD403224C4B22990192D9
:104E20000391219900930291434652463900584616
:104E3000FFF790FD0400E4E70422454BEEE71E9ADD
:104E40001F9B00200021FFF7D6FA01231E901F911F
:104E50000B9311E7229B54469B0711D1219B042BF6
:104E60000ED9219B55469C465E46043C64442A006C
:104E70004346013539002020B047A542F7D1B3465B
:104E8000344D26002B1F99465B46A3461C0032007A
:104E9000E87843463900013DA04701364D45F6D13B
:104EA00023005C469B46229B04349B07A9D55346AE
:104EB000219AE31A9A42A4D95E461500220043467D
:104EC00039002020B04753460134E31A9D42F5D8FB
:104ED00097E72800FFF71EFB02000B001E981F99A2
:104EE000FFF789FA0022184B06900791FFF7E6FAC0
:104EF0000CAE002800D031E7069807990022124B2B
:104F0000FFF7F2FA002800D028E7012301359D437E
:104F100024E70022069807990B4BFFF7CFFA0028E9
:104F200000D0F9E64B46002B5CD101239C46E144BE
:104F3000F2E6C046FFFFEFFFFFFFEF7F65CDCD41FB
:104F400065CDCDC1F80B02100000E03FACEB0110C5
:104F5000A4EB0110B4EB0110069B5E469B460323B5
:104F6000229A1340012B00D181E0202C00D131E79F
:104F70000B9B002B27D02D23335501342AE74F46B6
:104F8000069D202C00D1E7E63022331907E01720D8
:104F900006A9013409180A55202C00D1DCE6A342E9
:104FA000F5D12E220CAE0134F254D7E60C23229A0E
:104FB000134257D0219B013B2193A34200D9FCE629
:104FC000202C00D106E7229B5B0703D52B2333550A
:104FD0000134FFE6229B1B0700D4FBE62023335558
:104FE0000134F7E6DB0700D496E69EE7229B5546A0
:104FF0009B0711D1219B032B0ED9219B54469C4624
:105000005E46033D654422004346013439002020BA
:10501000B047AC42F7D1B346B9465F461C4EEC1CD4
:105020002A00B078434649460135B847013EAC42B4
:10503000F6D1229BBB464F469B0700D4E1E6534680
:10504000219AE31A9A4200D8DBE65E461500220058
:10505000434639002020B04753460134E31AAB429F
:10506000F5D3CEE6219BA34200D9A6E6B2E6219B6A
:10507000002B00D179E70B9B002B97D0219B013BA4
:1050800021939C4200D298E6202C00D073E7A1E641
:10509000B0EB0110F0B5DE4657464E464546E0B54A
:1050A00099B081468B4692469846229A239B1000DF
:1050B0001900FFF71EFA002800D0CAE022982399B1
:1050C0000122824B5242FFF70FFA002800D0C0E0C5
:1050D0002298239901227E4B5242FFF7EFF90028D4
:1050E00000D0B6E02298239900220023FFF7E6F9CA
:1050F000002800D0C9E1229B239C089309940898BA
:1051000009998023269ADB001A400D928022269C62
:105110001201144022000B94269C07000E001C4232
:1051200000D0ADE00B00034300D0D5E0002A00D052
:105130000AE2220006332493022313400C93022335
:10514000134200D002E2259B042B00D20FE2043B65
:105150000B93002304250A9300222298239900230D
:10516000FFF7ACF9002800D003E25A4B269A13400F
:1051700004930B9B0393249B0293089B099C00932D
:1051800001945946434652464846FFF72FFD020018
:105190002020269B1F27034059424B415B42184069
:1051A000531C0893594643464530C8470A9AD317BB
:1051B000D4185C40D30F0A936B1E0B9308AB9C462C
:1051C0000025674401E0202D0FD020000A21FEF7C2
:1051D000D7FE01357E193031317020000A21FEF7EB
:1051E000CFFE26000400092EEDD8052306930B9B65
:1051F00059460593002304930A3303930A9B4846B8
:10520000029310AB0093089A43460195FFF7F8FB11
:105210000C9B002B2DD05346C41A259BA34228D9A2
:105220004D465F4681461E00534639001A1920201C
:1052300043460134A847A642F6D853464846259926
:10524000C21A01320023914200D386E101301818BE
:105250000FE0269B0493259B0393249B0293229BA0
:10526000239C009301944346524659464846FFF713
:10527000BDFC19B0F0BCBB46B246A946A046F0BD85
:1052800001432BD10B9B2200002B00D154E70023BC
:105290000A93249B0A9A0024934200DD85E1229818
:1052A000239900220023FFF709F9002800D035E1F7
:1052B000269B084A02941A408023DB001343049380
:1052C000259B0393089B099CCBE7C046FFFFEF7F1C
:1052D000FFFFEFFFFFF7FFFF06232493B44B70009F
:1052E0009C46400D6044FFF715F9B24AB24BFFF7F8
:1052F000A6F8B24AB24BFFF783F83603B14B360B30
:10530000334304000D00380019000022AE4BFFF7B4
:1053100072F8AE4AAE4BFFF792F802000B00200085
:105320002900FFF76DF8FFF70DF90A90FFF7F2F883
:10533000A84AA94B04000D00FFF781F80022A74BF3
:10534000FFF75EF8FFF7FEF8A54A0600A54B200020
:105350002900FFF774F8040030000D000C96FFF7E9
:10536000D9F8A14AA14BFFF76AF802000B00200010
:105370002900FFF740F802000B0006000F00FFF7BE
:105380005EF8320004000D003B0030003900FFF7EA
:1053900037F800220E900F91954B20002900FFF75F
:1053A00034F80022934BFFF72BF802000B0020008B
:1053B0002900FFF72AF800228F4BFFF721F802009F
:1053C0000B0020002900FFF720F80D0080210400C9
:1053D00032003B000020C905FFF70DF802000B006A
:1053E00020002900FFF70CF802000B000E980F991F
:1053F000FFF70BF80022734BFFF702F87F4B0C9C72
:105400009C46644400222305FFF719F806000F00AC
:1054100002000B0008980999FFF750F800280AD0FD
:105420000A9B3000013B39000A930022714BFEF7C2
:10543000ECFF06000F000A9A330063323900C62AD7
:1054400012D802222698042510400B9A0C90002AAC
:1054500025D1259B042B05D9002800D0A1E0259B50
:10546000043B0B93042541E00222269810400B9A3E
:105470000C90002A12D1259B052B76D9002872D1D9
:10548000259B0525053B0B9334E0802212069446AC
:10549000229B0893239B6344099330E605250B4325
:1054A00000D1F6E608980999554A564BFFF714F8CB
:1054B000002808D0089809990022534BFEF7FEFFF8
:1054C000002800D0E5E6249B002B1CD00D9B002B70
:1054D00019D0249B013B2493259BAB4204D90C9B00
:1054E000002B5AD002230C9300230B930A9B002B12
:1054F00000D131E60898099932003B00FEF785FF9C
:105500000890099128E6259BAB42EDD90C9B002B16
:1055100043D000230B9302330C93E7E78020269BB4
:105520003A4A00061A40802384460294089C099D4A
:105530002900DB0013430493259B6144220003935D
:105540000B00009201938EE60524A8E600230B933E
:105550000A93023304250C93FEE553468C46013B27
:1055600063441B1A72E602230C930525C2E7042349
:10557000EDE58020089E099F000639008446269AA2
:10558000224B6144134004930B9B32000393249BF2
:1055900002930B0000920193F3E5259B5B1B0B9399
:1055A000A4E7022304250C93A0E79C1A013C76E6AD
:1055B00001FCFFFFFB799F501344D33FB3C8608BBE
:1055C000288AC63F0000F03F0000F83F61436F6348
:1055D000A787D23F71A379094F930A400000E03FAB
:1055E0001655B5BBB16B0240EF39FAFE422EE63FCD
:1055F00000002C400000244000001840FF03000081
:105600002D431CEBE2361A3F80842E41FFF7FFFF4B
:10561000F0B5DE4657464E464546E0B5A5B01E00FD
:105620002E9B92460C93CD4ACD4B80468B461A60FA
:10563000002900D1EAE1002330789946002800D102
:10564000ECE1C84B4C460B93C74B454657460E936F
:105650000AE0631C984622003B005946A84744468E
:105660003078002800D187E001362528F1D10823C1
:105670009A46043B9946023B9846013B00229C46D1
:105680000D943078711C0300203BDBB2102B03D843
:105690000B9C9B00E3589F460300303B89460D9CC2
:1056A000092B3AD9002398462A2800D1C1E00023CB
:1056B0009A462E284BD00300683BDBB2122B1ED833
:1056C0000E999B00CB589F4663460E001A43D8E7BD
:1056D00043460E001A43D4E74B460E001A43D0E768
:1056E00010230E001A43CCE753460E001A43C8E7B6
:1056F00080235B001A43FF3B9C467078E1444E4692
:1057000067284FD82428A4D90300253BDBB2422BBD
:105710009FD896499B00CB589F46002394461E0075
:1057200000E00131B3009B195B001E180878303E81
:105730000300303B092BF4D90123624689469C467D
:105740000023B0469A460E00E1442E28B3D1302102
:10575000802049428C46C000024370784B46844406
:105760006146092900D86CE12A2800D17AE1012399
:105770009C464E46E1449EE7A146A846BA46CA4525
:1057800003D801235B425344994653464A4659463F
:105790000020C047200025B0F0BCBB46B246A94659
:1057A000A046F0BD0300693BDBB20D930F2B00D97F
:1057B0004FE7012199408C466D49894661464B4629
:1057C00019400F91634649460B4200D028E10D9BDA
:1057D0000A2B3AD0072B00D03BE70C9B190008C9D5
:1057E0008846002B00D14BE121200243914614A9A9
:1057F0008C461F220F2162448C4651460D950C9118
:10580000A24615000F9902E020290CD0130064462F
:105810001C4020003730092C00D80738013168546B
:105820001A090F2BF0D80C9B54460D9D9A460F91E8
:1058300033E10C9B02CB8846002947DB0C93012304
:105840009C4670784E46E14431E70C9B02CB1493A2
:105850005346002B00D138E19C4608780B000C9091
:105860008C44002801D100F098FC8946614694469A
:1058700003E05A780133002A01D08B42F9D149461E
:1058800062465B1A0C900F93530500D520E102236A
:10589000180010400D90134200D1CBE30D930B1B69
:1058A000B1469A465E460C9822003B003100A8475C
:1058B00053460134185D0028F6D1B3464E460D9B81
:1058C000002B00D0C7E1149B0C93C9E60C93012375
:1058D0009C46283849420243884670784E46E14447
:1058E000E5E670786C2800D17FE180235B001A43E5
:1058F000FF3B9C46E14402E780239B001A430123BF
:105900009C467078E144FAE67078682800D173E12B
:1059100080231A437F3B9C46E144F0E6672800D190
:1059200003E1472800D15AE1452800D15AE1049209
:10593000072142460C9B0392073352468B431900C2
:1059400002920CC92800009201930C9122003B00A6
:105950005946FFF79FFB040082E6C046115600102F
:105960005C3900205C0A0210A00A0210EC0A021046
:1059700041900000462800D1DBE004920721424616
:105980000C9B0392073352468B43190002920CC9B9
:105990002800009201930C9122003B005946FFF72A
:1059A00025F904005CE6631C984622003B0059463A
:1059B0002520A847444653E60C9B04330D93631CF3
:1059C0009946920700D422E10C9B22001878594690
:1059D0003B00A84743464444012B00D885E23300EE
:1059E000B8462E005F4625004C46994622004346A5
:1059F000013439002020B047AC42F7D12C00BB461F
:105A0000350047464E460D9B0C9329E6DB4B30781C
:105A1000984600239946002800D012E60024AEE6FE
:105A20006F2800D188E000D80BE31023782800D13C
:105A3000CFE09A430A239C4600230F930A330D9329
:105A400080E05646B1008919490001330E181878D4
:105A5000303E010030390929F4D9B2461E00013325
:105A6000994628E60C9B023602CB8A46C94350462B
:105A7000C917084082460C933078731C99461AE681
:105A800010231000984311331843814680201300DF
:105A9000C0000340024200D1A9E64B46069308230A
:105AA00005935346049310230393002302930F9B03
:105AB000220001931CAB009359463B002800FEF7DF
:105AC0009FFF434604000C93CAE501235B42C3E6F3
:105AD0000F9B534501D953460F93022318001040E2
