:020000041000EA
:1000000000B5324B212058609868022188439860DF
:10001000D860186158612E4B002199600221596106
:100020000121F02299502B49196001219960352056
:1000300000F044F80222904214D00621196600F024
:1000400034F8196E01211966002018661A6600F04E
:100050002CF8196E196E196E052000F02FF8012189
:100060000842F9D1002199601B49196000215960AB
:100070001A491B48016001219960EB211966A021F2
:10008000196600F012F800219960164914480160C1
:100090000121996001BC002800D000471248134993
:1000A000086003C880F30888084703B5996A0420EC
:1000B0000142FBD001200142F8D103BD02B5186610
:1000C0001866FFF7F2FF186E186E02BD00000240BE
:1000D000000000180000070000035F00212200005C
:1000E000F4000018222000A00001001008ED00E03C
:1000F00000000000000000000000000074B24E7A12
:1001000000200420F7010010C3010010C5010010F9
:10011000C1010010C1010010C1010010C101001097
:10012000C1010010C1010010C1010010C701001081
:10013000C1010010C1010010C9010010CB01001065
:10014000CD010010CD010010CD010010CD01001037
:10015000CD010010CD010010CD010010CD01001027
:10016000CD010010CD010010CD010010CD01001017
:10017000CD010010CD010010CD010010CD01001007
:10018000CD010010CD010010CD010010CD010010F7
:10019000CD010010CD010010CD010010CD010010E7
:1001A000CD010010CD010010CD010010CD010010D7
:1001B000CD010010CD010010CD010010CD010010C7
:1001C00000BE00BE00BE00BE00BE00BEEFF3058054
:1001D000103800BEF2EB8871244D0510444D051017
:1001E0003802001090A31AE71E481F49086006C88D
:1001F00081F3088810471D480068002801D019487D
:10020000F3E70DA40ECC002902D000F012F8F9E7B4
:100210001749184A002000E001C19142FCD116495B
:100220008847164988471649884700BEFDE701C937
:1002300001C29A42FBD37047444D0510E0000020F4
:1002400048180020AC6405100000042000000420C1
:10025000AC64051000100420001004200000000011
:10026000704700000000000008ED00E0000000D032
:100270004818002050E8022029580010D50200102C
:1002800021580010F8B5C04606480749091A8B10D6
:10029000C90FC91810B5491003D0044B002B00D06A
:1002A000984710BD481800204818002000000000A2
:1002B000054B10B5002B03D00449054800E000BFF2
:1002C000FFF7E2FF10BDC04600000000F4D200209E
:1002D00008B0011030B583B0002405F0E3FB012520
:1002E00000F054F8802200231C4992001C4801941D
:1002F000009509F029FD802200231A4992001A482E
:100300000194009509F020FD8022002317499200F6
:1003100017480194009509F017FD02238022154922
:100320000093920000231448019409F00DFD03236B
:10033000802212490093D20000231148019409F051
:1003400003FD802200230F4912010F4801940095FC
:1003500009F0FAFC09F06AFDFEE7C04608B001109A
:100360005905001010B001100D07001018B0011051
:100370007509001020B00110E50A001028B0011026
:10038000490B001030B00110CD0B001070B5554D69
:100390005549280008F068F90321002001F022FBEC
:1003A0000321012001F01EFB00220121002001F0A9
:1003B00033FB00220121012001F02EFB012008F077
:1003C000A3FF4A4B4A4E18604A49300008F04CF9E6
:1003D0000321022001F006FB0321032001F002FBB0
:1003E00000220121022001F017FB0022012103203D
:1003F00001F012FBD024052001F0FCFB2023240691
:1004000000220121A362052001F006FB062001F075
:10041000F1FB402300220121A362062001F0FCFA37
:100420000D2001F0E7FB80239B0163620B20A36199
:1004300001F0E0FB80231B0163620C20A36101F04B
:10044000D9FB80235B0163621520A36101F0D2FB1D
:1004500080239B0363620A20A36101F0CBFB80230E
:10046000DB0063620120A36108F04EFF224B0322F0
:1004700018600021012008F00BFE204B01221860BB
:1004800004211F4B052001F01BFB01220421062043
:1004900001F0EAFA280000F09FFC300000F0D8FCE0
:1004A00000280DD1174805F04BFB174C31002000F8
:1004B00000F038FD00280DD1144805F041FB70BD57
:1004C000134805F03DFB104C3100200000F02AFDE0
:1004D0000028F1D00F4805F033FB0021200000F088
:1004E0004BFFECE770120020801A060024D3002096
:1004F00068120020A08601001C3900207C330020F7
:10050000790A00103CB001103CE7022084B00110D1
:1005100068B00110B0B001100FB410B50D4C82B02E
:100520002068002803D00121494209F097F805A965
:100530000498019105F022FB2068002804D00023D4
:100540000022002108F0F6FD02B010BC08BC04B087
:100550001847C04624D30020F0B54E46DE46574625
:1005600045460023E0B58DB0994606935B4B0024C9
:1005700002935B4B08AE03935A4B9A465A4B9B46E9
:100580005A4B04935A4B07935A4B05931EE040462F
:10059000594903F0ABFB002861D1019803F0B6FB89
:1005A000E221890503F073FB5449041C03F0A4FB0A
:1005B000002854D15049201C03F098FB00284ED14C
:1005C00000239946642009F037FD3C1C3100029855
:1005D00000F010FC0A23F05E03F098FB484903F09A
:1005E00042FB051C0023F05E03F090FBE22189052D
:1005F00003F04DFB0222B35E804601930423F05EBC
:1006000003F084FBE221890503F041FB211C071C58
:1006100003F023FBFF218905041C03F06DFB002878
:1006200005D13849201C03F061FB002807D0201CAD
:1006300003F0C2FB02000B000398FFF76DFF534667
:1006400051461B685A1C0A6059469B00CD50632ACC
:100650000FDC4046294903F04FFB002897D00123C7
:100660009C46E1444B46052BACD10598FFF754FF5F
:10067000A6E75D465C4600209135FF3502CC03F0CD
:10068000EFFAAC42FAD1204903F0EDFA041C03F072
:1006900093FB02000B000498FFF73EFFBF21201CD4
:1006A000090603F029FB002805D100230693002347
:1006B00052461360CDE7FC21201C890503F016FB90
:1006C0000028F2D0069B64331A0006939623DB00C1
:1006D0009A42ECD30798FFF71FFFE6E7701200205D
:1006E000CCB00110203900208833002008B101105F
:1006F00038B1011074B101109A9999BF9A99993F34
:10070000000003430000C0BF0000C842F0B54546EA
:10071000DE4657464E46E0B5814B8DB00293814B85
:10072000814D0593814B0AAC0693814B9946814BD1
:100730009B46814B9A46814B9846814B0393814B54
:100740000893814B0993814B0793814B049346E0B7
:100750002200059B03CA03C3206803F02DFB06009B
:1007600060680F0003F028FB3200009001913B000D
:100770000698FFF7D1FE26687649301C03F0BCFAD4
:1007800000283CD17449301C03F0B0FA00284AD14B
:1007900066687249301C03F0AFFA002843D17049F3
:1007A000301C03F0A3FA00283DD15B465A461B6873
:1007B000013313604A461060022B03DD039B1B7854
:1007C000002B56D153461B680B2B6ADC00230022FA
:1007D0000021286808F0AEFC624809F02DFC642175
:1007E000286808F03BFF0028F6D02100029800F0AE
:1007F00045FB0028ACD10498FFF78EFEE6E75A4986
:10080000301C03F073FA00280DD0534651461B6884
:10081000301C5A1C0A6042469B005449D65003F0D3
:100820006BFA0028AED0002259464B460A604A4671
:100830001B6801331360022BC4DD039B1B78002B64
:10084000C0D10898FFF768FED02380221B069201D2
:100850005A61802212015A61802292035A618022D9
:10086000D2005A610123039A13705B461B68022B66
:10087000A8DD0998FFF750FED02380221B069201C5
:100880009A61802212019A61802292039A618022E9
:10089000D2009A610023039A137053461B680B2BF6
:1008A00094DD43460021186803F0DAF9434659689D
:1008B00003F0D6F94346996803F0D2F94346D96864
:1008C00003F0CEF94346196903F0CAF94346596962
:1008D00003F0C6F94346996903F0C2F94346D96962
:1008E00003F0BEF94346196A03F0BAF94346596A60
:1008F00003F0B6F94346996A03F0B2F94346D96A60
:1009000003F0AEF91A4903F0AEF903F055FA02000C
:100910000B000798FFF700FE00235246136055E7CF
:10092000681200204C3900201C390020C0B1011091
:10093000583900205C390020D4E60020D8E6002099
:1009400038E80220F4B1011028B2011054B20110AD
:1009500080B20110000020C20000884100009642D1
:100960000000E841881300000000AA420000F8419E
:1009700000004041F0B557464E464546DE46E0B5DC
:10098000324B87B09846324B324D0393324B334E45
:100990000193334B334F9B46334B0293334B994672
:1009A000334B0493334B059396235B009A461BE02D
:1009B0000023337050452CD85B461B88C31ADA17C6
:1009C0009B1853400A2B32DCC72C25D84B461B788A
:1009D000002B33D0002300220021286808F0AAFB56
:1009E000FA20400009F028FB6421286808F036FE50
:1009F0000028F5D0404600F043FD0400B842D7D1AE
:100A00003378002BE6D10398FFF786FD012333707E
:100A1000E0E70198FFF780FD4B461B78002BD9D00B
:100A20000598FFF779FD00234A461370D2E70100CD
:100A30000298FFF771FD5B461C80C5E70498FFF73D
:100A40006BFD01234A461370C4E7C0463CE7022011
:100A50009CB201101C390020C4B201103FE80220F2
:100A600032E80220FFFF0000ECB2011037E802205C
:100A70000CB3011034B30110002300B583B001930F
:100A8000052814D0062801D003B000BD114A117802
:100A90000029F9D01370D02380221B0692019A619D
:100AA000802292030C489A61FFF736FD0AE0094B59
:100AB0001A78002AE8D101321A70084B01A9186887
:100AC00008F000FD019B002BDED08022044B520574
:100AD0001A60D9E73EE8022050B301107C330020B1
:100AE00004ED00E0F8B54746CE46144BD0259946B4
:100AF000134B802680B580279846124C2D06BF01E7
:100B0000B60301212068494208F0A8FD0028F8D06A
:100B10004846FFF701FD43466F616E611B78002B6D
:100B200002D1AF61AE61ECE7C82009F085FAAF6190
:100B3000C820AE6109F080FAEDE7C04674B3011039
:100B40003EE802207C33002010B514F031FA002872
:100B500024D114F0C3F91548FFF7DEFC14491548F9
:100B6000154B164A14F0C8F9011E13D01448FFF7AC
:100B7000D3FC0121002014F00BFAFA20400009F008
:100B80005BFA0021002014F003FAFA20400009F07B
:100B900053FAEEE70B48FFF7BFFCEAE70A48FFF716
:100BA000BBFC002009F0E2F810BDC046C4B3011040
:100BB000E4B30110F0B3011010270000040040005E
:100BC00014B40110F8B30110A4B30110F0B5DE465F
:100BD00057464E464546FA20E0B580008BB009F0F6
:100BE0002BFA092308AD2B80714B002499462A006B
:100BF000022357214846009407F05EFD322009F099
:100C00001BFA6C4B2A002B80572102234846009484
:100C100007F052FD684B2A002B80572102234846DB
:100C2000009407F049FD654B2A002B8057210223D1
:100C30004846009407F040FD614B2A002B80572165
:100C400002234846009407F037FD0F232A002B802B
:100C500057210D3B4846009407F02EFD594B2A00C2
:100C600057212B8048460223009407F025FD64207D
:100C700009F0E2F95448FFF74FFC09F01FFA00238E
:100C80009B469A460393514B8046002600270593C6
:100C900063E000232A00009357214846063307F0FB
:100CA00015FD002868DBAB786A780493EC78297925
:100CB000240409020C43039B697928780C43002B18
:100CC00065D1A24563D25346FA21E31A89008B42CB
:100CD00003D901239C460393E344049B12020004BE
:100CE0001043184303F00DF88246200003F009F882
:100CF000011C504602F0B7FF354902F0C8FF03F06F
:100D000027F86E23181A46284DDA462002F0FEFF17
:100D1000011C381C02F0A4FF071C09F0CFF9434660
:100D2000C21A2C4BA24601369A4213D98046300093
:100D300002F0ECFF011C381C02F095FF03F008F8EC
:100D40000600320059460598FFF7E6FB002300260F
:100D500000279B46642009F06FF9072304AA04A921
:100D6000D3738C460F22063B5721484600936244BA
:100D700007F0A2FC00288CDA09F0A0F94346C21A59
:100D8000144B9A42E6D98046002EDAD0CFE753467C
:100D900000219C424941039B0B40039300239A4648
:100DA000002CE9D099E76428B0DD6420AEE7C046A6
:100DB00070120020090300000A1F00000C2400002C
:100DC0000D240000080F000038B4011068B40110B1
:100DD0000000C8415FEA000000B585B06A466B2399
:100DE000938100236821009303AA023307F064FC77
:100DF00005B000BD70B588B06A463B23D3730F229F
:100E00003A3B0C0000936A446821060007F054FC4A
:100E1000002304AD00932A00682130000E3307F050
:100E200055FC2B885BBA23806B885BBA6380AB88E8
:100E30005BBAA380EB885BBAA3812B895BBAE380A2
:100E40006B895BBA2381AB895BBA638108B070BDE3
:100E5000002300B583B0009338210333064A07F01E
:100E60002BFC0023002803DB142001F011FF0123D9
:100E7000180003B000BDC04694CF0110F0B50025A6
:100E800085B00F0003233821224A0095040007F0A3
:100E900013FC00283ADB502002AE01F0F9FE0623D5
:100EA000320038212000009507F010FC00282DDBCF
:100EB000772233789343082B28D17078B378F4786D
:100EC0001B01000318432309184302F01AFFD6211F
:100ED000890502F0DCFE104902F0D9FEF0237860AB
:100EE0001B0320041840B3885BBA9BB2184302F07E
:100EF00008FFD621890502F0CAFE084902F0C7FEA4
:100F0000074902F0AAFE3860012000E0002005B089
:100F1000F0BDC04690CF01100000C8420000484319
:100F200000004842F0B5DE4657464E4645460400AE
:100F30002923E0B585B02371FA239B00E38098460E
:100F4000C023002603AD5B009946984F2B807F3B62
:100F5000216008002A002921FF3B009607F0ACFB26
:100F60002F80217902232A002068009607F0A4FB35
:100F70002E80217902232A002068009607F09CFB2E
:100F800091236A46D3720B22903B217920686A44F0
:100F900000939A4607F090FB217901232A002068EC
:100FA000009607F093FB2B782A00237280235B00C6
:100FB0002B8021792068FE3B009607F07DFBFF2304
:100FC0002B8021792A002068FD3B009607F074FBF6
:100FD00080232B8021792A0020687E3B009607F031
:100FE0006BFB60239B466B465A46DA725346553A72
:100FF000217920686A44009307F05EFB2179012380
:101000002A002068009607F061FB5A462B782A7068
:10101000122213436B70217902232A002068009664
:1010200007F04AFB44232B80243BAB7021792A0034
:1010300020681D3B009607F03FFBFF235B422B809F
:10104000023321792A002068FF33009607F034FB31
:101050004B462B807F3B21792A002068FF3B00967E
:1010600007F02AFB2F80217902232A0020680096AE
:1010700007F022FB2E80217902232A0020680096A7
:1010800007F01AFB4A4B2A002B80217902232068A3
:10109000009607F011FB6B467D3FFF3F1F725346E2
:1010A0002179206802AA009307F006FB2179012329
:1010B0002A002068009607F009FB04222B782F7085
:1010C00013436B70217902232A002068009607F0F1
:1010D000F3FA384B2A002B802179022320680096EE
:1010E00007F0EAFA8223FF332B80803B21792A0024
:1010F0002068FF3B009607F0DFFA4B462B807F3BD2
:1011000021792A002068FF3B009607F0D5FA2A4B88
:101110002A002B80217902232068009607F0CCFA60
:101120002F80217902232A002068009607F0C4FA54
:1011300001F0E0FE002900D10FE1FA220023920025
:1011400002F032FA80460126832399466B464A46CE
:1011500000275A727A3A2179012320686A4400965E
:1011600007F0AAFA0123217920682A00009707F0E6
:10117000ADFA2B78002B21D101F0BCFE00290BD059
:10118000FA220023920002F00FFA4346E788C01AC1
:101190008742D9D20020D9E0FA21890002F0C6F9AD
:1011A0004346C01AE3889842CED9F3E7FF01000016
:1011B000FF060000FF070000946B00008423FF334C
:1011C0002B80823B21792A002068FF3B009707F0A3
:1011D00073FA92236A46D3720B2221792068913BDD
:1011E00000966A4407F068FA217901232A002068F2
:1011F000009707F06BFA81232B8021792A00206861
:101200007F3B009707F058FA564B2A002B80217934
:1012100002232068009707F04FFA4A466B46DA72BD
:10122000783A2179012320686A44009607F044FA4D
:10123000217901232A002068009707F047FA4A46DF
:101240002B782A707F3A93436B7021799046022362
:101250002A002068009707F02FFA434B2A002B80C2
:10126000FE3B21792068FF3B009707F025FA802399
:101270005B002B8021792A002068FE3B009707F055
:101280001BFAFF232B8021792A002068FD3B009761
:1012900007F012FA80232B8021792A0020687E3BF8
:1012A000009707F009FA314B2A002B80217902239D
:1012B0002068009707F000FA842399466B464A4657
:1012C0009A727A3A2179012320686A44009607F0DD
:1012D000F3F9217901232A002068009707F0F6F935
:1012E0004A460C262B782A70743A93436B70217906
:1012F00002232A002068FF36009707F0DDF92E80D0
:10130000217902232A002068009707F0D5F9184BAD
:101310002A00E360174B20682B8021790223009775
:1013200007F0CAF943462B801A33AB7021792A00A3
:1013300020681B3B009707F0BFF92E8021792068B9
:1013400002232A00009707F0B7F9012005B0F0BC8E
:10135000BB46B246A946A046F0BD414602F0E6F8BB
:101360008046F0E6FF060000FF0100000A040000CE
:10137000E880000001E8FFFFF0B5CE464746C023F5
:101380000026040080B585B003AD5B002B807F3B59
:101390002A00FF3B0F0001790068009607F08CF9E6
:1013A000364B2A002B80FE3B21792068FF3B0096BC
:1013B00007F082F92E80217902232A002068009606
:1013C00007F07AF99122237A2A706B70217902232F
:1013D0002A002068009607F06FF980235B002B80BD
:1013E00021792A002068FE3B009607F065F9FF236B
:1013F0002B8021792A002068FD3B009607F05CF9DC
:1014000080232B80217920687E3B2A00009607F0FC
:1014100053F92368984623799946002F21D0780004
:10142000C0190D21800002F081F804232B7083B2D3
:101430001B0A6B70A87003232A0049464046009699
:1014400007F03AF98023DB002B8021792068022302
:101450002A00009607F030F905B0C0BCB946B04686
:10146000F0BD80239B002B80FF3B2A00494640466D
:101470000097FF3B07F020F9EEE7C046FF010000B0
:10148000F0B5C64600B584B0040001F033FD002974
:101490005DD0FA220023920002F086F806000127B0
:1014A00003AD13236A4693720A2221792068123B06
:1014B0006A44009707F000F90023217920689846D4
:1014C00000932A00013307F001F92B785B0718D14C
:1014D00001F010FD00290BD0FA22E3889200984613
:1014E000002302F061F8801B8045DAD21B4E29E010
:1014F000FA21890002F01AF8E388801B9842D0D9BB
:10150000F4E71E236A46D3720B22217920681D3B23
:101510006A44009707F0D0F8434621792A002068F2
:101520000093023307F0D2F80C23FF332E882B8070
:1015300043462179206876BA00932A000233B6B276
:1015400007F0BAF8300004B080BCB846F0BDFA210C
:10155000890001F0EBFF0600A1E7C046FFFF000095
:10156000F0B5C646431E00B50A3314D8072304005D
:101570001A000834224023426CD01300093BA342D6
:1015800009D31030841A08F08BFC374A27001568FD
:10159000002D28D10EE008F083FC334A1368002B9D
:1015A00006D0002508F084FC280080BCB846F0BDB9
:1015B0000027002407202D4D2B002900284245D16B
:1015C00000202B4E706031602A4EB44607266544D9
:1015D000B5431560284AEB1A1360284A68602860F2
:1015E00013604B600D60002FDBDD244F3E68A64288
:1015F000D7D31F48036804E01A68002A04D01800F3
:1016000013005968A142F7D3AB42CAD01D001A6833
:101610000835904602600A1B102A05D919194A603C
:1016200042460A6001602100134A761A10683E6043
:10163000864200D21660802212060A435A600022B7
:101640001A600F4A136801331360ABE7EB1D834345
:101650001900B5E708F024FC034A27001568002D9F
:10166000A8D0002CC1DA9CE738D3002008E700207E
:10167000DCE70220F8FF0100ACE70220A0E702202F
:10168000B8E7022070B5002804D008384368040089
:10169000002B00DB70BD0268002AFBD15B005B08F9
:1016A0004360050008F0FCFB184A616813685B188A
:1016B0001360174B1A001B689C42FBD85068161821
:1016C000B4420DD0601883421AD02360AA4200D0E1
:1016D0001560104A13680133136008F0E9FBD9E77D
:1016E0000918501851608342F3D10B481500006867
:1016F0009842EED058681B68411869602B60E5E796
:10170000054800688342F5D1DFE7C046A0E7022024
:10171000DCE70220BCE7022038D30020D0231B06E0
:101720001B68AC4A9900F0B5DE468B4651585A42C8
:1017300053412F2257464E4645465B4293439A46B5
:10174000A54BE0B59C4683B000260191E2440029F8
:1017500038D0A24B99465246F30808339B009D5857
:101760000123340098460836002D22D00F21200096
:10177000294001342D09002919D04B465A469A5860
:101780000300C240203BDB171340424613420CD1FA
:1017900007220F000240920097403A00C308904F82
:1017A0003C339B00DA51019B9847002D01D0B44295
:1017B000DCD3202ECFD103B0F0BCBB46B246A94645
:1017C000A046F0BD854E5F4600210F23B346CC08EE
:1017D00022005046083292001258002A00D1D0E070
:1017E000180010408046100913421AD05D46ED598A
:1017F000A94620256D42AC468C446546ED17AC46A3
:101800004D46CD40A94665464E46354001263542F7
:1018100004D14646724D3C34A4006651002800D1E4
:10182000AFE01C000440A446140A03421AD0481C2E
:1018300080465846C059464681464D460800F54008
:101840001F38C01728400125284208D165462D01C0
:10185000AC46F0086646624D3C3080004651002C94
:1018600000D18EE0180020408446100B234211D096
:101870008C1CA0465C46E4594646A1464D460C00E9
:10188000F5401E3CE4172C4001252C4200D182E09B
:10189000002876D01C000440A446140C034210D04B
:1018A000C81C80465846C059464681464D460800E9
:1018B000F5401D38C01728400125284275D0002C5E
:1018C0005FD0180020408046100D23420ED00C1D22
:1018D000A4466546414CE459EC40A1460C004D46F7
:1018E0001C3CE40F2C426AD000284AD01C00044063
:1018F000A446140E034218D0481D8046454637487A
:10190000C059E840814608004D461B38C00F2842A8
:1019100009D165462D05AC4640466646C008304DA7
:101920003C3080004651002C2BD0180020408446CB
:10193000120F23422AD029488C1D8146C059E0400D
:101940008046080045461A38C00F284206D1E008F4
:101950006446234D3C30240680004451002A10D0B8
:101960004846C059CC1DE0408446080065461938F9
:10197000C00F284205D1E0083C30194C1207800006
:1019800002510831202900D021E714E7002AF8D0BD
:1019900012488146E4E765462D02AC46F4086646E7
:1019A0000F4D3C34A400665172E765462D03AC46EA
:1019B000F00866460A4D3C30800046517FE74546B8
:1019C0002D04A84664464646E408054D3C34A40070
:1019D000665189E7982400203041014080E50020CD
:1019E00000400140094A83009A1810B5146840224B
:1019F000544080322240064CC000A44663441A6022
:101A0000044B9C466044416010BDC04604C0014088
:101A100004D0014000400140074B8000C3181B6800
:101A2000C90092000A435A400C231340034A9446CB
:101A3000604403607047C04604C0014004D00140C8
:101A40008000002905D0064B9C46022360440360B9
:101A50007047044B9C46022360440360F8E7C0468D
:101A600004E0014004F00140D0231B061B6830B5A0
:101A70000500584243412F205B4283430E48EC0847
:101A80008446072028408000814020000B4D3C30D8
:101A900063448000A40041511B19002A05D0802214
:101AA000920194466344196030BDC022920194466D
:101AB00063441960F8E7C0463041014000400140EE
:101AC000F8B545469846D0231B06DE461C689B4663
:101AD0002B4B57469A46A3004E469946E0B55346CF
:101AE00016004A469B5807000D00002B34D0434691
:101AF000002B3FD053464A4641469950D0231B06FF
:101B00001C6863425C412F220720634293431D4AB5
:101B100038409446FA081100800085403C311A484C
:101B20006344890092000D509B18002E0ED0802235
:101B300092019446634401210D201D6000F074F968
:101B4000F0BCBB46B246A946A046F8BDC0229201F1
:101B5000944663441D60F3E74346002BD1D05346BF
:101B600041460D2099500022084900F0BFF95B461C
:101B70001C68C6E70D20054900F0B2FABAE7C04676
:101B80009824002030410140004001401D17001002
:101B9000D023F0B5C6461B0698461B680C4F9B0029
:101BA0001600FA5804000D0000B5104209D12900B2
:101BB00014430D203200FC5000F098F980BCB84668
:101BC000F0BD01F0A7FB43461B689B00FA58EEE707
:101BD00080E5002010B504000D2000F081FAD0232C
:101BE0001B061B6802499B005A58A2435A5010BD5D
:101BF00080E500200123D022834012069362936186
:101C0000094A83009A1811684022514080320A40E4
:101C10000649C0008C4663441A60054B9C46052368
:101C2000604443607047C04604C0014004D0014096
:101C3000004001408023DB051868000F7047C04654
:101C40000FB400B5084883B003F07AFF049B002B63
:101C500007D005A91800019103F0AEFD034803F079
:101C60006FFF012003F0C0FD90B40110F0B101102E
:101C700010B50148FFF7E4FFA0B40110EFF31080A6
:101C800072B6034A1368002BFCD0BFF35F8F704716
:101C90002C0100D0BFF35F8F0022024B1A6080F34B
:101CA000108870472C0100D070B5EFF3108C72B61D
:101CB0000D4D2B68002BFCD0BFF35F8F0724CB08A2
:101CC000C618C05C01230C40A3401C000440034222
:101CD00007D118433070BFF35F8F2C608CF31088EE
:101CE00070BD1000FFF7ACFF2C0100D0F8B54746DF
:101CF000CE46884680B5EFF3108C72B61C4D2C682A
:101D0000002CFCD0BFF35F8F9A4222D80721012616
:101D1000894602E00132934218D34D463700154000
:101D2000AF40D4080119045D2742F3D110003C43B1
:101D30000C70BFF35F8F00220D4B1A608CF310887C
:101D400000280EDBC0BCB946B046F8BD01204042B9
:101D5000EFE7BFF35F8F00232B608CF31088012027
:101D600040424346002BEDD00898FFF769FFC0467C
:101D70002C0100D030B5EFF3108C72B60A4C2368FA
:101D8000002BFCD0BFF35F8F072301220B409A404A
:101D9000CD08435D93434355BFF35F8F002323601A
:101DA0008CF3108830BDC0462C0100D0044A107856
:101DB000431CDBB2172B00D9102313707047C046A9
:101DC000A011002010B5064B064C82B00100009314
:101DD00018221F232000FFF789FF02B010BDC04664
:101DE000B0B40110A82400200021044B044ABFF322
:101DF0005F8F02C39342FAD17047C046000100D002
:101E0000800100D0054B064A1360064A13605360F8
:101E10009360D360136153619361704780808080C9
:101E200000E400E004E400E01F2318401E3B834070
:101E3000002905D0C021044A49005350136070475F
:101E4000802201498B50FAE700E100E00122824044
:101E5000034B1B6813405A1E9341D8B27047C046CB
:101E600000E100E001238340014A13607047C0464F
:101E700000E200E0064B10309B688000C358054A22
:101E800000209B1A2F229A424041C0B27047C046A0
:101E900000ED00E0A411002070B50D00EFF31086F6
:101EA00072B60F4A1368002BFCD0BFF35F8F0D4B47
:101EB00010309B6884001B590B4A934203D09D420B
:101EC00001D001F027FA074B9B681D51BFF35F8FCC
:101ED000BFF35F8F0022024B1A6086F3108870BD3B
:101EE000240100D000ED00E0CD010010F0B5574610
:101EF0004E46DE464546E0B585B006000091170027
:101F0000EFF3108B72B66A4A1368002BFCD0BFF354
:101F10005F8F0025674B5D579A46002D00DAA9E0D8
:101F20006B00654C01935B199B009846A146C14428
:101F30004B4652469B7910361370604BB6009B6837
:101F400099590B1B2F2B33D95D4B994200D0ACE034
:101F5000019B42469C465B4B6544AD0063535A4B24
:101F60000232A218043B9B1A1B05584A5B0D6519E7
:101F700013436B80564B0121AB80FF23AB71009B59
:101F8000EF71AB604B460B4319004C4B9B6899516A
:101F9000BFF35F8FBFF35F8F0022454B1A608BF357
:101FA000108805B0F0BCBB46B246A946A046F0BDBD
:101FB00001200A008243D3798C46BB4231D8454682
:101FC000130044491B1B5B415943090D3D4B6353AF
:101FD0003D4B02356519043B5B1B1B053B4D5B0DFF
:101FE0002B43AA464D466B800425AC465546E0443B
:101FF000131F44441B1B1B055B0D1D434B4699716E
:1020000000999D8099604946DF71334B014313600D
:10201000BBE75800C01880002018C179B9422FD9F9
:1020200002000623D356002BF3DA02932B4B6146B2
:102030000393131D9A4604235B429C46E144504699
:102040004B461B1A1B055B0D9C46204B9571984611
:102050006346404603439380019B5A199200039BB9
:10206000A418A380029B1C4AA371009B2260E77105
:10207000A3608AE701F04EF9002553465D574FE70C
:10208000908802934005131D9A46031561469C46AD
:102090004046D444634604302018181AE023000553
:1020A000400D1B0218430390C5E701F033F94FE7D9
:1020B000240100D042E80220A411002000ED00E03D
:1020C000CD01001000A1FFFFD411002000E0FFFFB0
:1020D00001BDFFFFAAAA00000148804701BD000022
:1020E000F0B5DE4657464E464546E0B50C0083B097
:1020F000EFF3108872B6634A1368002BFCD0BFF36D
:102100005F8F614B61499A68030010339F00D55976
:1021100001938D4243D0A54254D05D4EAA1B2F2A75
:102120003DD85C4B9B461B68994601231A009C4690
:1021300082404B4613401F2299466346024093401B
:102140009A4680225B4650469850BFF35F8FEFF36C
:1021500005839B46002B37D0019B5B4501D001F0E6
:10216000D9F801232A009A439068844208D176E086
:102170004B005B189B00F3189868844236D01A0015
:10218000062151560029F3DA844254D04B46002BE5
:1021900027D0C02251463F4B5200995019603A4B0C
:1021A0009B68DD51BFF35F8FBFF35F8F0022354B1C
:1021B0001A6088F3108803B0F0BCBB46B246A9464B
:1021C000A046F0BD0D00EAE72A0063469A439068F6
:1021D0008442D5D106201056130000280ADA0D00DB
:1021E00031E0802351462B4AD150D8E706201856BB
:1021F000002821DB42001118890074188B46A16861
:102200009960E179D971062161569971002924DB21
:10221000A488F11A640524155C44091909051E4CAB
:10222000490D2143998013181C4A9B001178F3181B
:1022300099711070AAE713005946002914D1FF3193
:1022400091711749918015490A789A71154A9B1B1B
:102250005B415A43120D0A7098E71149E2E70620E4
:10226000105613000028C5DA0F4A1049D21A083A4E
:102270005002400D014399800D4952080A43DA800B
:1022800084E7C046240100D000ED00E0CD0100103D
:10229000A411002000E100E000E0FFFF42E802207E
:1022A00001BDFFFFAAAA0000DE11002000F0FFFF21
:1022B00000F8FFFF10B58308040003202040FF242E
:1022C000054AC0009446844081409B0063441A68DC
:1022D000A2430A431A6010BD00E400E070B5012477
:1022E0000443EFF30581EFF3108C72B6214A1368B3
:1022F000002BFCD0BFF35F8F1F4B05001F4AED1A68
:102300006D416A43120D1E4D8900AE6852B2765877
:10231000A6421CD00621595691421CD01221595672
:10232000914222D01E215956914220D02A2159563D
:102330000324914210D0134B19781A708171BFF3A6
:102340005F8F00220B4B1A608CF3108870BDAB6856
:102350000D4C5C50EFE700246100091989005B18FF
:10236000FF21997109499980E5E70124F4E70224E6
:10237000F2E7C046240100D0A4110020AAAA000060
:1023800000ED00E042E80220CD01001001BDFFFF9A
:102390001F2110B5091A0248FFF7ECFC10BDC0461A
:1023A0004DE8022010B5084B084C82B001000093A4
:1023B000002205232000FFF799FC002801DB1F23E2
:1023C000181A02B010BDC046CCB401104DE802206E
:1023D00070B504000E001500FFF7E8FC01002000B6
:1023E00000F006F8A680E580BFF35F8F70BDC046A1
:1023F000024B9C46614489000160704740000034F4
:10240000F8B5124C124DAC4212D20126002776428A
:102410002368002B0DD0FFF7C9FC01002000FFF757
:10242000E7FF66602772BFF35F8F0C34AC42EFD3D7
:10243000F8BDFFF7BBFC01002000FFF7D9FF666085
:10244000BFF35F8F0834AC42E2D3F1E738180020C5
:102450004818002010B50400FFF7A8FC0100200078
:10246000FFF7C6FF01235B426360BFF35F8F10BDC0
:1024700010B50400FFF79AFC01002000FFF7B8FF39
:1024800001235B42636000232372BFF35F8F10BDA3
:1024900010B504000120FFF795FC034BC3189B0007
:1024A0002360BFF35F8F10BD40000034034B9C4698
:1024B000614489000160BFF35F8F704740000034C2
:1024C000F0B5DE4657464E464546E0B587B0EFF3D9
:1024D0000583032201251A40954091008846A946AC
:1024E000B34B03925C58B34B1D60B34B04934B4604
:1024F000B24843630823E55E002D37DAA3881BB298
:10250000002B00DBADE0A379002B00D0EEE0082328
:10251000E05E002820DB430062691B18DB00D31853
:102520009E68DD68731C00D111E1A448010041449C
:10253000826A0B69B71A9B1A9F4215D30123026A5C
:10254000039883401A420FD09C4800F0CBFC8D4288
:1025500002DCCCD18642CAD940BF07B0F0BCBB4632
:10256000B246A946A046F0BD0E61EDE762696B0078
:1025700092465B19DB009A4453469E68DF6800F080
:10258000B1FC8F42BADC00D103E1002F00DAE8E0B1
:102590005246534652691B699346049A934200D1AE
:1025A000D9E052460821605E528800045946104323
:1025B0009847009001910099019A0B001000134375
:1025C00000D1CEE013000A00B61A9F41002806DBB6
:1025D0007A4800F087FC009E019F36184F41534611
:1025E0009E60DF6000229A5E002A00DA86E75300D0
:1025F00099186069C900411802938B68C9689B46A5
:10260000B94200DD7AE702D1B34200D976E7082368
:102610009C46A444059565462281A446029B2C0055
:1026200006E053009918C90041188D68C968AB4687
:102630009B18DB00C318B94206DC00D1B3E01C00D4
:102640000023E25E002AECDA230064469C465346EF
:102650001A806346059D1D80A3881BB2002B00DAFB
:1026600051E72269EFF3108172B61368002BFCD09A
:10267000BFF35F8F0123A7885B42A3803FB223692A
:10268000BFF35F8F00221A6081F31088002F00DAF9
:1026900039E72300083322009A4666697B00DB197C
:1026A000DB00F318996850468C460824115FDD68FA
:1026B000002910DB029306E0AB4244D00023E15E28
:1026C0002000002906DB4C006418E4003419E3689C
:1026D000AB42F1DD029B078000201F5E1980002FB6
:1026E000DCDA1400A379002B00D110E70023A371DA
:1026F00026000823E15E08364B1C00D12CE70800B9
:10270000A246656902E03E004B1C1AD04B005B18E4
:10271000DB00EF180A008C46E95E7B881BB2002BB9
:10272000F1DA01235B42DC17BB60FC60824205D01A
:10273000534631801B893B8053461A8160464B1CAF
:10274000E4D15446E5E6A3686345B7D9C2E76B1CFC
:1027500000D0EAE6F8E65B4658461B699847002831
:102760001BD153461B8822692381EFF3108372B675
:1027700011680029FCD0BFF35F8F514662880A8040
:1027800022696580BFF35F8F0021116083F3108899
:10279000B4E6864200D8F8E6B0E65B461A685B68A5
:1027A0000092019307E7B34500D848E74CE7C046DD
:1027B00014D300203C700540C124001000400540A7
:1027C000074810B50268EFF3108172B61368002B4A
:1027D000FCD0BFF35F8F06F015F90020002110BD7B
:1027E000A4E6002070B52E4C2569002D04D00A21E6
:1027F0002C48FFF7FDFD70BD2B4E0321300000F08B
:102800004DFBE660FFF7D2FA284B03229C46D0230B
:1028100022701B061B6801216370254B6044A36076
:102820000F23800020610220638063694942A180F8
:1028300019800231198647311D83585218315A5276
:1028400075325C399952183201319952183201317E
:102850009952183201319952083518329D5202317D
:102860001832995218320131995218320131995265
:10287000183201319952183201319952183201310E
:1028800099520C4B0C49DC6001303562FFF704FBB8
:1028900001210320FFF7C8FA084B1D60A7E7C046D7
:1028A000EC110020A4E60020004005404000003468
:1028B000FFFF100014D30020C12400103860054031
:1028C00000487047EC110020F8B5050018200F00F3
:1028D00001F0ACFA041E3ED01821380001F0C4FA11
:1028E00001216061280000F0EDFAE5600600FFF7C5
:1028F0005DFAD022267012061268184B62709C4650
:102900000122BBB252426044800063819B18206167
:102910002281A2806380002F0BD079006269C919DF
:10292000C9000F4B89181380013318329BB28A42B9
:10293000F9D10127B7400B4BB20030000A492F6292
:10294000D450FFF7A9FA01213000FFF76DFA074BC9
:102950009C4665442F602000F8BDC046400000340E
:10296000FFFF000014D30020C12400103820000015
:10297000124B70B5040098421ED001220578104910
:10298000AA408C46C36801211A6263441A60280079
:10299000FFF74AFA0B492800FFF7A2FB280000F0D6
:1029A00087FA00212278084B60699200D15001F02B
:1029B0007DFA200001F07AFA70BDC046EC110020CB
:1029C00038300000C124001014D30020F8B51F00D7
:1029D00008AB1B7804001600002B08D100F08AFA1F
:1029E00032003B00121A8B41002B00DA52E02269C0
:1029F000EFF3108072B61368002BFCD0BFF35F8F2B
:102A00000223E15E63694A005218D2009B182269D2
:102A1000002936DB1D886580BFF35F8F00251560B8
:102A200080F31088069A9E60DF601A61079A5A61E7
:102A30005A8801325204520C101C002A1FD082B254
:102A40005880080410432669EFF3108772B6326885
:102A5000002AFCD0BFF35F8FA2881A80A18023696F
:102A6000BFF35F8F00221A6087F310880A4923782A
:102A70008C4601329A40E36863441A60F8BD012035
:102A8000DDE7BFF35F8F0023136080F31088012020
:102A90004042F3E70020F1E73C20000070B5010060
:102AA0000469EFF3108C72B620680028FCD0BFF3E5
:102AB0005F8F02200D5E4C6968004019C000241829
:102AC0000869002D36DB26884E80BFF35F8F002615
:102AD00006608CF31088E3606388049801332061FA
:102AE0005B0405985B0CA26060611A1C002B1FD070
:102AF00093B22804628018430A69EFF3108C72B60F
:102B00001368002BFCD0BFF35F8F8B8823808D80F0
:102B10000B69BFF35F8F00221A608CF310880B786B
:102B200001329A40CB6808498C4663441A6070BDF4
:102B30000122DDE7BFF35F8F002303608CF3108871
:102B400001204042F3E7C0463C20000010B5438915
:102B50000A1493421ADD53009B184269DB00D31814
:102B60000469EFF3108C72B62268002AFCD0BFF320
:102B70005F8F5A88090494B2090C8A4208D003690D
:102B8000BFF35F8F00221A608CF31088002010BD05
:102B90008022120214435C80012302698371BFF317
:102BA0005F8F002111608CF31088044902788C46F5
:102BB0009340C268012062441360E8E73C200000B3
:102BC00040787047F0B54746CE46060080B596245B
:102BD0006442E5170F00A4197D4183B08D4215D8DA
:102BE00012D000F087F922002B00121A8B41002B23
:102BF00016DC002B40D03000390000F085F903B01E
:102C0000C0BCB946B046F0BD8442EAD900240025D4
:102C100000F070F922002B00121A8B41002BE8DD26
:102C200000F068F922002B00121A8B41002B0ADBFE
:102C300000230193124B2200009312482B00FFF750
:102C40002DFF0130D7D0A846A1460F4D0F4C6B6A1F
:102C5000984504D8AA6A4A45CDD29845CBD1226876
:102C6000EFF3108172B61368002BFCD0BFF35F8FB7
:102C7000200005F093FEEAE7002ABCD0D0E7C0466A
:102C8000C1270010EC11002000400540A4E6002000
:102C9000F0B5CE46474680B583B0040000F02AF96F
:102CA000FA2206000F00200000230021920000F00D
:102CB000B7FF8019794104000D1E02DA01242D4D61
:102CC000644296267642F71736196F41AF4215D8FF
:102CD00012D000F00FF932003B00121A8B41002B8A
:102CE00018DC002B43D02000290000F00DF903B0C0
:102CF000C0BCB946B046F0BDA642EAD900220023C6
:102D000016001F0000F0F6F832003B00121A8B414B
:102D1000002BE6DD00F0EEF832003B00121A8B418A
:102D2000002B0ADB00230193134B3200009313485E
:102D30003B00FFF7B3FE0130D5D0114BB1469846AA
:102D4000104E736A9F4204D8B26A4A45CBD29F4262
:102D5000C9D143461A68EFF3108172B61368002B8D
:102D6000FCD0BFF35F8F404605F018FEE9E7002A6C
:102D7000B9D0CFE7FFFFFF7FC1270010EC11002083
:102D8000A4E6002000400540F0B557464E46DE461A
:102D90004546E0B506000F0085B0EFF30583994680
:102DA0008B46002B12D0384900204B6ABB4206D319
:102DB0008A6ADB1B591E8B41B2424041184305B061
:102DC000F0BCBB46B246A946A046F0BD2F4B9A4682
:102DD000DB68984653461B784046039300F082F820
:102DE0004246039B040004339B009B580D001B1AB2
:102DF00039003000001BA941894510DC0DD020BFEF
:102E0000214A0020536A5B45D9D3926ADB1B591EC5
:102E10008B41B24240411843D1E78342EFD900F0E1
:102E200069F832003B00121A8B41002B1ADB002399
:102E30000193174B3200009350463B00FFF72EFEE4
:102E4000011E0FDD104B5A6A5A451BD39B6AB342D1
:102E500016D35046FFF77AFE0B4A0020536A5B45B3
:102E6000ADD3D2E7084A0020536A5B45A7D30020C0
:102E7000926ADB1BB24240415A1E934118439EE7BF
:102E80005A45E6D120BFE4E700400540EC110020A0
:102E9000C1270010004870470040054010B5024AA5
:102EA0000248FEF701FF10BDE8B40110AC24002079
:102EB00010B5034B01001800FEF75CFF10BDC046C3
:102EC000AC24002000B5054B83B0009300220323FF
:102ED0000348FEF70BFF03B000BDC0460CB5011060
:102EE000AC2400200300416A0A00986A596A8A42A9
:102EF000FAD17047034B596A0A00986A596A91429D
:102F0000FAD1704700400540064A536A9942FCD8FE
:102F100007D1044B02E05A6A914202D19A6A904268
:102F2000F9D8704700400540F8B5DE464E46574692
:102F30004546E0B58B4605000A991800160000F0DA
:102F4000F5FA0A9B6C001F02324B64199C46A400E0
:102F50006444636881469F4200D967602B1FDBB2DF
:102F60009846012B30D9C02380229B01E31812011F
:102F70001A60294BAD0059599A4600291BD173019B
:102F8000E026226853401E40802342465B01E3183E
:102F90001E60012A30D9802380229B01E318120190
:102FA0001A6053464A4667605A51F0BCBB46B24667
:102FB000A946A046F8BD586900F0B8FA01304300B0
:102FC0001B18033BFDD2DAE75B46012BCBD1C023B4
:102FD00003229B01E3181A60023AA3681A42FCD04C
:102FE0007301E0262268AD0053401E4080230A4A48
:102FF0005B019246E3181E605A4621685140032245
:103000000A401A6001225B469A40A3681A42FCD02B
:10301000C1E7C04600800040B4240020F0B5464619
:103020004F46D646C0B51F00344B44009C4624187A
:10303000A4006444636888461600FF2B02D88023EE
:103040005B006360031FDBB29A46012B30D9C023BB
:1030500080229B01E31812011A60294B85005959FF
:10306000994600291BD17301E026226853401E4077
:10307000802352465B01E3181E60012A30D9802369
:1030800080229B01E31812011A6080235B006360B9
:103090004B465F51E0BCBA46B146A846F0BD586900
:1030A00000F044FA013043001B18033BFDD2DAE77D
:1030B0004346012BCBD1C02303229B01E3181A60A6
:1030C000023AA3681A42FCD07301E0262268850008
:1030D00053401E4080230A4A5B019146E3181E605C
:1030E00042462168514003220A401A6001234246A9
:1030F0009340A2681342FCD0C1E7C0460080004064
:10310000B4240020014B8000C0587047B424002034
:10311000F8B5040021481E0017000D0000F006FA63
:103120000100380000F002FA069B36041B031E4320
:103130002368002B20DB1A4B1A49E3185A1E9341CF
:103140008022920194465B421B0B174A1B03634487
:103150001360164A13601F000A689743FBD1144B93
:103160002560E2182123A06013602368002BFCDA9D
:103170000823E6601360F8BD3F2322681340AB428A
:10318000D9D1A3681B051B0D8342D4D1EE22E3687D
:10319000D2021340B342CED1EDE7C046001BB700C8
:1031A0000040FDBF08C0004000E0004000F00040CB
:1031B0000430000010B580241C4BE4051C6000287E
:1031C0001AD001231A4C18431A4BDC611A4C4440A4
:1031D0001C62596298628021144BC9051960174816
:1031E00017490860E021C9041960002A07D180222C
:1031F000144B12061A6010BD0E4BD861EBE7530159
:103200009B1A9B009A18802312015B049A4209D2F0
:1032100013000D490B60074B5A608022094BD20501
:103220001A60E8E7094B1A00F3E7C04600B0054012
:10323000D3C007B0008005402D3FF84FFCFF0100D0
:103240000820014000A0054064390020FFFFFF0076
:103250008023024A9B000B43D362704700800540E5
:10326000002310B50100988A1B8B984710BDC046FB
:10327000162310B50100188802331B88984710BD2B
:10328000F8B54746CE4680B50F1E18D01423994690
:10329000043304000025012698464B46188843460F
:1032A00021681B88984701C4431E98410135064098
:1032B000AF42F2D13000C0BCB946B046F8BD0126DD
:1032C000F8E7C046002370B504000D00988A054950
:1032D0001B8B984703000020002C01DB0130A0402D
:1032E0002900984755420000AA23064A1B01136093
:1032F0008D235B00D3600449044B19605368002B95
:10330000FCDA70470040024000B0FA000060024062
:103310007047C04610B50148FEF792FC20B5011079
:1033200070B5074D074EB54209D20024013E761B09
:10333000B60808CD984723000134B342F9D170BDD7
:10334000C0AF0110FCAF0110054B064A06491A60D8
:10335000064A074B1A6010000B689843FBD1704770
:1033600000E00040BFCDFBFE08C00040FE7F3C00F7
:1033700000F00040044BDB6C002B03D18022034B98
:10338000D2021A607047C046000011504C20115004
:10339000044A054B1A60054A1368DB018033FBD1F0
:1033A0007047C046FFFFFF0100F0004008C000402A
:1033B0004022034B9A675A671A67DA667047C0461D
:1033C00000F0014010B5FEF70FFD10BD70B5044DC3
:1033D000044CA968C022200000F086FDAC6070BDDE
:1033E00000ED00E000000020002310B5294C82B061
:1033F000A367FFF779FF0122274B1A60636C012B4B
:10340000FCD10322254B1A60224A936B012BFCD17D
:10341000013300930121224A22480433FFF778FE4A
:10342000052301210093204A2048FFF771FE002266
:10343000022104201E4BFFF7F1FD0022012105208F
:103440001C4BFFF7EBFD0022002107201A4BFFF772
:10345000E5FD002200210820174BFFF7DFFD802348
:10346000DB000093002200210920134BFFF75CFDD5
:103470000022104B00210620FFF7D0FD0420FFF7AB
:1034800041FE0E4900F052F801000020FFF7E0FE77
:1034900002B010BD008000403CB0004030B00040A1
:1034A000002F685900800240008C864700C002400F
:1034B000001BB70040597307006CDC0240420F004C
:1034C00001480421014B18471012002081320010DE
:1034D000014B9B681847000010120020124A936F9E
:1034E0009B0815D29066D166002905D0FFE7FFE75B
:1034F000FFE7516F106F704704B580210906C217AE
:103500005140002800D0C84317F0EAFC002104BD58
:10351000F0B5146E556E576F166FFFF7E3FF146624
:10352000556657671667F0BD000000D0114A936FCB
:103530009B0813D210665166002905D0FFE7FFE70C
:10354000FFE7516F106F704704B5002801D00020CD
:10355000C04317F0C5FC002104BDC046F0B5146E91
:10356000556E576F166FFFF7E5FF14665566576780
:103570001667F0BD000000D094464A4A926F920848
:10358000624601D228E0C046F0B5464E346E756EF4
:10359000776F366F00F020F89446424A14665566FD
:1035A000576716676246F0BD94463E4A926F92088E
:1035B000624601D254E0C046F0B53A4E346E756EA4
:1035C000776F366F00F04CF89446364A14665566AD
:1035D000576716676246F0BD002B24DB11D0002927
:1035E0003EDA00B5C943404200D1013100F038F85D
:1035F000C943404200D10131DB43524200D1013383
:1036000000BD002AEBD1002801D1002905D00020FF
:10361000C90FC90701D1C043410800B517F050FCDC
:103620000022002300BD00B500290ADBDB43524223
:1036300000D1013300F014F8C943404200D10131F8
:1036400000BDC943404200D10131DB43524200D1A9
:10365000013300F005F8DB43524200D1013300BDD5
:10366000002923D1002B18D1002A0CD0BC460D4FC5
:1036700038667A6600210023FFE7FFE7FFE77A6FED
:10368000386F67467047002801D00748010000B531
:1036900017F016FC0022002300BD02000B000020E2
:1036A00000217047000000D0FFFFFFFF002B00D07B
:1036B000BFE0130C28D1002AE7D080B4114F39663F
:1036C0007A66FFE7FFE730B4040C7B6F396F1B04A9
:1036D00023433B667A66FFE7FFE7FFE7C04684B215
:1036E0007B6F3D6F1B0423433B667A66FFE7FFE772
:1036F000C04600232C042D0C7A6F386F00196941E5
:10370000B0BC7047000000D0F0B594460025140E00
:1037100001D112020835140F01D112010435940FA2
:1037200001D192000235D40F01D152000135D40BE2
:103730000134254F7C66254C3C660E0C93B2FFE7A6
:10374000FFE7FFE73C6F6643360C7703BE467343E3
:10375000DF0B5B04C01AB941130C7343DB18C91AA1
:10376000CE086643360CB64493B273431F0F1B0159
:10377000C01AB941130C73431F0B1B05C01AB94182
:10378000860D8F023E436643360C092D24DB520A18
:103790007243801A7703460A6643360C16235B1B76
:1037A000DE40DF40BF1964466643821B7046043525
:1037B00006330100D940A840C01900D30131A2420C
:1037C00006D20023F0BD0000000000D0FFFFFFFF85
:1037D000121B0130F3D3F1E709277F1BFE4064463B
:1037E000A2B27243801A00D20139220C7243130C28
:1037F0001204821A99410B007046043513370100F8
:10380000F940A840801900D30131002B02D1A24217
:103810000AD2F0BD013000D30131121BFAD2013BB4
:10382000F8D1A24200D2F0BD013000D30131121B09
:10383000F7E7F0B51C0C00D080E00CB400251C0AA2
:1038400004D11B02160E3343120208351C0B04D19F
:103850001B01160F3343120104359C0B04D19B004E
:10386000960F334392000235DC0B02D192185B4174
:1038700001351C00971864410134464F7C66464C64
:103880003C660E0CFFE7FFE7FFE7C0463C6F664370
:10389000360C7703BE4697B27743C01B00D201397E
:1038A000C01B00D201399FB27743C91BC91B170C3B
:1038B00077437E04FF0B801BB941CE086643360C6C
:1038C0000C2D33DBB644120B1F053A431B0B97B28A
:1038D0007743C01B00D201399FB27743C91B170C35
:1038E00077433E043F0C801BB941860D8F023E4357
:1038F000664329277F1BFE400C3D7746AF40BF192A
:1039000030BCA2B2ABB272437343801A9941220C0D
:103910007243130C1204801A994102000B00013704
:10392000001BA941F9D2781E0021F0BD0C277F1B96
:10393000FE4077467F0BAF40FF19E0E700245D1C97
:1039400007D0144F7D663966FFE7FFE7FFE7FFE723
:103950003C6F95B29EB265436643401BB141150C66
:103960001E0C6543664336042F0C3E432D04401B5A
:10397000B141994204D202000B0020000021F0BDA9
:1039800001D19042F7D3801A994101349942F2D380
:10399000F6E70000000000D0FFFFFFFF4840414075
:1039A000484018B4134B5B68019308BD18B4114B21
:1039B0001B68019308BD94460F4A926F920805D286
:1039C000624618B40B4BDB68019308BD0A4AF0B598
:1039D000146E556E576F166F6246FFF7F2FF064A78
:1039E0001466556657671667F0BD18B4014B9B689F
:1039F000019308BD281A0020000000D0FFB55040F8
:103A00004240504059404B40594000E0FFB5154FEF
:103A10004C00640D03D0BC4204D10C0314D8002028
:103A2000090D09055C00640D03D0BC4204D11C03E0
:103A30000AD800221B0D1B0501264B4009D44B4020
:103A400003D58B4200D18242FFBD9942FCD1904206
:103A5000FFBD0B43DB1803431343F5D0C94349189B
:103A6000FFBD0000FF07000000B5FFF7CFFF80415A
:103A700000BDC04600B5FFF7C9FF01D9002000BD59
:103A8000012000BD00B5FFF7B9FF01D9002000BD3E
:103A9000012000BD00B5FFF7B1FF804100BD01204E
:103AA00040054A00121804D85A00121801D8002004
:103AB00070470120704700000021002805D17047A1
:103AC000C1174840401AFAD0C90713B5064B1B6806
:103AD00098470CBC441CA2401005120B0349091B5B
:103AE00009051943114310BDA0E500201F04000083
:103AF00010B54C00620D8023D218DB00D21A5B0592
:103B00007E2A10DD9E3A13DACC17090349081943BF
:103B10005242D140640001341532202A05DAD040E7
:103B20000843604310BD002010BD0846604310BD2F
:103B3000C80FC018013810BD18B4024B5B6A01935E
:103B400008BD0000281A002010B50148FEF778F8DB
:103B50002CB50110132370B51D78012D19D014DD7B
:103B60001D48FFF785FB06001C48FFF781FB1C4C36
:103B700080223100200000F0B7F9022D06D019484C
:103B8000FFF76EFB184B186070BD154C174BA36404
:103B9000F5E7174B124C23606360A360E360236179
:103BA0006361A361E36123626362A362E3622363EF
:103BB0006363A363E36323646364A364E3642365CF
:103BC0006365A365E36523666366A366E3662367AF
:103BD0006367A367E367D9E75344000053460000D7
:103BE000281A00204C330000A0E50020F53B00100F
:103BF000493B001007B5604601880A0A0230DF2AF7
:103C0000FAD1C9B2820804D3028840880004104364
:103C100000E00068014A5050039007BD281A0020B8
:103C200051434343C9188C46110C83B24B4310B423
:103C3000040C614392B280B2504362431C041B0CDB
:103C4000001910BC59411304120CC01851416144B1
:103C5000704700004840414048400E4B5B681847A1
:103C60000C4B1B6818470C4A936F9B0802D2094BF8
:103C7000DB681847F0B5146E556E576F166FFFF777
:103C8000F6FF054A1466556657671667F0BD014B87
:103C90009B681847A4E50020000000D007B5484005
:103CA0004140484001E0C04607B54200120E03D033
:103CB000FF2A03D1420218D8C00DC0054A00120ED7
:103CC00003D0FF2A03D14A020FD8C90DC90501222A
:103CD000414005D4414001D5814207BD884207BD1E
:103CE0000143491801D0C043001807BD00B5FFF7D4
:103CF000DBFF804100BDC04600B5FFF7CFFF80412C
:103D000000BD491A002807D108467047C10FC907EE
:103D100000D54042002817D0F44603B40B4B1B6873
:103D2000984706BC81409E384042803107D20B063E
:103D300007D04900490AC0051043084360470130D5
:103D4000F8E7490A8902F5E770470000A0E500207E
:103D500041000A0E80231B067E2A0BDD9E3A0BDAF9
:103D6000C1174002400818435242D0404900013177
:103D70004843704700207047C00FC0180138704793
:103D8000C0420DD300B540004008002100F00EF8FD
:103D9000002801D4404200BD8020000600BD000084
:103DA000014BDB6918470000A4E50020014B5B6A6A
:103DB00018470000A4E50020014BDB6F1847000006
:103DC000A4E5002010B50148FDF73AFFBCB1011091
:103DD000132310B510481C78FFF74AFA0100012C94
:103DE0000AD003DD80220D4800F07EF80C48FFF772
:103DF00037FA0C4B186010BD084C5422200000F01C
:103E000073F82200084980322368002B00D121601A
:103E100004349442F8D1E9E753460000A4E50020B9
:103E20004C330000A0E50020C53D001070B5040033
:103E30000A4E300017F0B4F8200016F0B9FA050069
:103E4000300017F035F8002D05D0054B2C199C4299
:103E500001D8280070BD0348FDF7F2FE3818002095
:103E60000000042044B50110F8B506000C000C4F0A
:103E7000380017F095F82100300016F039FA0500E7
:103E8000380017F015F87443002D05D0054B2C1998
:103E90009C4201D82800F8BD0348FDF7D1FEC0467A
:103EA000381800200000042044B5011070B504004B
:103EB000054D280017F074F8200016F083FA28004A
:103EC00016F0F6FF70BDC0463818002001480421E6
:103ED000014B18472012002081320010014B1B6853
:103EE0001847000020120020014B5B6818470000B3
:103EF000201200207047C046F8B55746DE464E46B1
:103F00004546E0B599460A9B07009A460D9B8846B0
:103F100093460B9C9B073BD10C9B9C423DD21E1BA6
:103F20000B9415000C005E442A004B46013521001D
:103F30002020B847B542F7D1A0460B9C002C20D0DA
:103F4000454636195346321B013C185D29004B4645
:103F5000B847002CF6D12B00350098460D9B9B07E7
:103F60000FD55B46EC1A0C9BA3420AD946469846ED
:103F70002A004B46310020200134B8470135444522
:103F8000F6D32800F0BCBB46B246A946A046F8BD11
:103F900016001500002CD3D1E0E716001500002C08
:103FA000CED1EEE7F0B54546DE4657464E46E0B583
:103FB00085B09C4610AB1B78149F934698460F9C87
:103FC000129E139DBB074CD4002D42D1B44248D25F
:103FD00001233B4099460E9B013B9A46302304E067
:103FE000524601341355A64201D9202CF8D14B4634
:103FF000002B00D183E00E9B013B99463023A54264
:1040000005D82EE04A4601341355AC4229D0202C65
:10401000F8D1FB060CD57B0554D4A64263D0A5424B
:1040200061D0119B102B50D0022B57D0202C32D1B5
:10403000202301930E9B5A460093039763460295F3
:10404000FFF75AFF05B0F0BCBB46B246A946A046F2
:10405000F0BD01233B40994601233B422AD1B442A3
:10406000B9D3FB061CD57B05DBD4002CD5D1119B25
:10407000102B5BD0119B022B6BD0302301240E9AA6
:1040800013704346002B10D17B073ED52B260E9A8A
:10409000631C1655CDE72300013430260E9AD65402
:1040A000202CC5D04346002BEED02D260E9A631C43
:1040B0001655BEE74346002B2FD0013DB44200D237
:1040C00089E798E7119B102BB2D1BB0637D5202C7E
:1040D000AED058230E9A13550134A7E7202CA7D051
:1040E0002300013407E0631E012CC0D0119A102A6E
:1040F00031D0022AD1D162260E9AD65496E7FB0619
:10410000CED57B0500D488E78BE723003E0790D50A
:1041100020260E9A013316558BE70C233B405A1E7E
:104120009341ED1AB44200D255E764E7BB060ED4C2
:1041300078230E9A0224137030235370A1E7202CA9
:1041400000D175E778230E9A135501346EE7582392
:10415000EFE76033EDE70E9AA61E91464E44BA068D
:1041600002D55822327098E77822327095E7C0461F
:1041700010B5002800D110BD01F098FCFBE7C04647
:104180000B0010B5002802D049681B68984710BD85
:10419000F0B55746DE464E464546E0B595B08346F7
:1041A0000F00924698461E9A1F9B10001900209EF1
:1041B000FFF775FC002800D0EAE11E981F99012244
:1041C000C54B5242FFF750FC002800D014E11E9866
:1041D0001F990122C14B5242FFF75CFC002800D01E
:1041E000E9E01E981F990022BD4BFFF753FC002801
:1041F00000D0C8E01E981F990022BA4BFFF734FC8C
:10420000002800D0BFE01E981F9900220023FFF76E
:104210002BFC002800D0E4E000230B93229B5B05DD
:1042200000D406260024302307E0172106AA013413
:1042300052181355013E202C01D0092EF5D81E9896
:104240001F99FFF755FCA84BF2009B181A685B6892
:10425000050008920993FFF733FC02000B001E983B
:104260001F99FFF79EFB089A099BFFF7BEFB06907C
:104270000791FFF761FC8146FFF71EFC02000B006F
:1042800006980799FFF78DFB0022984B069007913F
:10429000FFF700FC002800D10DE101239C46E1441A
:1042A0004846FFF709FC02000B0008980999FFF740
:1042B000E1FB002802D0002399460135002E00D1F1
:1042C000D9E006954D46B94614E006AA9446172350
:1042D0000A216344280001341F19FFF727F9303100
:1042E000397028000A21013EFFF720F9092D00D876
:1042F00017E10500202CE8D14F46069D20240CAE86
:1043000006AA17239446634499465B46B346069330
:104310000FE04B4628000A210134E618FFF7DEF8CB
:104320003031280031700A21FFF7D8F8051E00D17E
:10433000E4E0202CEDD1069B5E469B460323229AA7
:104340001340012B18D1219B002B15D00B9B002B68
:1043500000D1FDE0219B013B2193202B0CD9302380
:10436000219A07E0172006A9013409180B55944239
:1043700000D3CCE0202CF5D1229B01940393219B08
:104380000096029322E0229B52460493219B39001F
:10439000039358461E9B1F9C02960093019443462C
:1043A00000F04AF90400200015B0F0BCBB46B2464C
:1043B000A946A046F0BD229B5B070FD403224C4BBD
:1043C000229901920391219900930291434652460A
:1043D00039005846FFF790FD0400E4E70422454BFE
:1043E000EEE71E9A1F9B00200021FFF7DAFA012357
:1043F0001E901F910B9311E7229B54469B0711D1EE
:10440000219B042B0ED9219B55469C465E46043CBD
:1044100064442A004346013539002020B047A542B4
:10442000F7D1B346344D26002B1F99465B46A34671
:104430001C003200E87843463900013DA0470136B0
:104440004D45F6D123005C469B46229B04349B07D6
:10445000A9D55346219AE31A9A42A4D95E4615007B
:104460002200434639002020B04753460134E31A66
:104470009D42F5D897E72800FFF722FB02000B00CA
:104480001E981F99FFF78DFA0022184B069007918E
:10449000FFF7EAFA0CAE002800D031E7069807993A
:1044A0000022124BFFF7F6FA002800D028E701237C
:1044B00001359D4324E70022069807990B4BFFF72F
:1044C000D3FA002800D0F9E64B46002B5CD101233B
:1044D0009C46E144F2E6C046FFFFEFFFFFFFEF7F9F
:1044E00065CDCD4165CDCDC190D101100000E03F3B
:1044F000A0B5011098B50110A8B50110069B5E4645
:104500009B460323229A1340012B00D181E0202CEB
:1045100000D131E70B9B002B27D02D2333550134DD
:104520002AE74F46069D202C00D1E7E630223319BA
:1045300007E0172006A9013409180A55202C00D1DC
:10454000DCE6A342F5D12E220CAE0134F254D7E6BC
:104550000C23229A134257D0219B013B2193A34263
:1045600000D9FCE6202C00D106E7229B5B0703D58F
:104570002B2333550134FFE6229B1B0700D4FBE6B7
:10458000202333550134F7E6DB0700D496E69EE797
:10459000229B55469B0711D1219B032B0ED9219BB2
:1045A00054469C465E46033D654422004346013422
:1045B00039002020B047AC42F7D1B346B9465F4638
:1045C0001C4EEC1C2A00B078434649460135B847DA
:1045D000013EAC42F6D1229BBB464F469B0700D41E
:1045E000E1E65346219AE31A9A4200D8DBE65E469A
:1045F00015002200434639002020B04753460134BD
:10460000E31AAB42F5D3CEE6219BA34200D9A6E63E
:10461000B2E6219B002B00D179E70B9B002B97D0B2
:10462000219B013B21939C4200D298E6202C00D094
:1046300073E7A1E6A4B50110F0B5DE4657464E4635
:104640004546E0B599B081468B4692469846229AF7
:10465000239B10001900FFF722FA002800D0CAE0BF
:10466000229823990122824B5242FFF713FA002825
:1046700000D0C0E02298239901227E4B5242FFF7DE
:10468000F3F9002800D0B6E02298239900220023F5
:10469000FFF7EAF9002800D0C9E1229B239C089388
:1046A0000994089809998023269ADB001A400D92F4
:1046B0008022269C1201144022000B94269C0700A5
:1046C0000E001C4200D0ADE00B00034300D0D5E04B
:1046D000002A00D00AE2220006332493022313406A
:1046E0000C930223134200D002E2259B042B00D23C
:1046F0000FE2043B0B93002304250A930022229827
:1047000023990023FFF7B0F9002800D003E25A4BA9
:10471000269A134004930B9B0393249B0293089BBC
:10472000099C009301945946434652464846FFF778
:104730002FFD02002020269B1F27034059424B419A
:104740005B421840531C0893594643464530C847BE
:104750000A9AD317D4185C40D30F0A936B1E0B939D
:1047600008AB9C460025674401E0202D0FD02000B7
:104770000A21FEF7DBFE01357E1930313170200051
:104780000A21FEF7D3FE26000400092EEDD80523EA
:1047900006930B9B59460593002304930A33039316
:1047A0000A9B4846029310AB0093089A4346019532
:1047B000FFF7F8FB0C9B002B2DD05346C41A259B0A
:1047C000A34228D94D465F4681461E005346390014
:1047D0001A19202043460134A847A642F6D853466A
:1047E00048462599C21A01320023914200D386E13E
:1047F000013018180FE0269B0493259B0393249BFC
:104800000293229B239C00930194434652465946AF
:104810004846FFF7BDFC19B0F0BCBB46B246A946FE
:10482000A046F0BD01432BD10B9B2200002B00D1F1
:1048300054E700230A93249B0A9A0024934200DD44
:1048400085E12298239900220023FFF70DF9002823
:1048500000D035E1269B084A02941A408023DB00F1
:1048600013430493259B0393089B099CCBE7C04605
:10487000FFFFEF7FFFFFEFFFFFF7FFFF062324930C
:10488000B44B70009C46400D6044FFF719F9B24AE2
:10489000B24BFFF7AAF8B24AB24BFFF787F83603DC
:1048A000B14B360B334304000D00380019000022D1
:1048B000AE4BFFF776F8AE4AAE4BFFF796F8020024
:1048C0000B0020002900FFF771F8FFF711F90A909B
:1048D000FFF7F6F8A84AA94B04000D00FFF785F88A
:1048E0000022A74BFFF762F8FFF702F9A54A06007E
:1048F000A54B20002900FFF778F8040030000D00D8
:104900000C96FFF7DDF8A14AA14BFFF76EF8020005
:104910000B0020002900FFF744F802000B000600FE
:104920000F00FFF762F8320004000D003B0030007A
:104930003900FFF73BF800220E900F91954B2000B5
:104940002900FFF738F80022934BFFF72FF80200F9
:104950000B0020002900FFF72EF800228F4BFFF7F5
:1049600025F802000B0020002900FFF724F80D00B5
:104970008021040032003B000020C905FFF711F838
:1049800002000B0020002900FFF710F802000B00C6
:104990000E980F99FFF70FF80022734BFFF706F8F8
:1049A0007F4B0C9C9C46644400222305FFF71DF8B6
:1049B00006000F0002000B0008980999FFF754F851
:1049C00000280AD00A9B3000013B39000A930022DC
:1049D000714BFEF7F0FF06000F000A9A33006332B6
:1049E0003900C62A12D802222698042510400B9AB4
:1049F0000C90002A25D1259B042B05D9002800D036
:104A0000A1E0259B043B0B93042541E0022226985C
:104A100010400B9A0C90002A12D1259B052B76D9B9
:104A2000002872D1259B0525053B0B9334E080229D
:104A300012069446229B0893239B6344099330E615
:104A400005250B4300D1F6E608980999554A564BBF
:104A5000FFF718F8002808D0089809990022534B4E
:104A6000FFF702F8002800D0E5E6249B002B1CD0BD
:104A70000D9B002B19D0249B013B2493259BAB421B
:104A800004D90C9B002B5AD002230C9300230B93C8
:104A90000A9B002B00D131E60898099932003B00AF
:104AA000FEF789FF0890099128E6259BAB42EDD9D6
:104AB0000C9B002B43D000230B9302330C93E7E7AE
:104AC0008020269B3A4A00061A408023844602949E
:104AD000089C099D2900DB0013430493259B614436
:104AE000220003930B00009201938EE60524A8E6B2
:104AF00000230B930A93023304250C93FEE55346DF
:104B00008C46013B63441B1A72E602230C93052575
:104B1000C2E70423EDE58020089E099F00063900C6
:104B20008446269A224B6144134004930B9B320027
:104B30000393249B02930B0000920193F3E5259BC2
:104B40005B1B0B93A4E7022304250C93A0E79C1A9C
:104B5000013C76E601FCFFFFFB799F501344D33FF5
:104B6000B3C8608B288AC63F0000F03F0000F83FC2
:104B700061436F63A787D23F71A379094F930A40BE
:104B80000000E03F1655B5BBB16B0240EF39FAFEAD
:104B9000422EE63F00002C40000024400000184058
:104BA000FF0300002D431CEBE2361A3F80842E41A8
:104BB000FFF7FFFFF0B5DE4657464E464546E0B5E7
:104BC000A5B01E002E9B92460C93CD4ACD4B80463D
:104BD0008B461A60002900D1EAE10023307899461B
:104BE000002800D1ECE1C84B4C460B93C74B45461F
:104BF00057460E930AE0631C984622003B00594634
:104C0000A84744463078002800D187E0013625289F
:104C1000F1D108239A46043B9946023B9846013B52
:104C200000229C460D943078711C0300203BDBB2BF
:104C3000102B03D80B9C9B00E3589F460300303B8E
:104C400089460D9C092B3AD9002398462A2800D181
:104C5000C1E000239A462E284BD00300683BDBB20C
:104C6000122B1ED80E999B00CB589F4663460E0010
:104C70001A43D8E743460E001A43D4E74B460E00CA
:104C80001A43D0E710230E001A43CCE753460E0018
:104C90001A43C8E780235B001A43FF3B9C467078A9
:104CA000E1444E4667284FD82428A4D90300253B69
:104CB000DBB2422B9FD896499B00CB589F460023DE
:104CC00094461E0000E00131B3009B195B001E18E2
:104CD0000878303E0300303B092BF4D901236246AB
:104CE00089469C460023B0469A460E00E1442E2891
:104CF000B3D13021802049428C46C00002437078F5
:104D00004B4684446146092900D86CE12A2800D129
:104D10007AE101239C464E46E1449EE7A146A8461F
:104D2000BA46CA4503D801235B42534499465346C9
:104D30004A4659460020C047200025B0F0BCBB467B
:104D4000B246A946A046F0BD0300693BDBB20D9315
:104D50000F2B00D94FE7012199408C466D498946B8
:104D600061464B4619400F91634649460B4200D0BD
:104D700028E10D9B0A2B3AD0072B00D03BE70C9B78
:104D8000190008C98846002B00D14BE121200243BD
:104D9000914614A98C461F220F2162448C4651462D
:104DA0000D950C91A24615000F9902E020290CD018
:104DB000130064461C4020003730092C00D8073807
:104DC000013168541A090F2BF0D80C9B54460D9DE5
:104DD0009A460F9133E10C9B02CB8846002947DBB2
:104DE0000C9301239C4670784E46E14431E70C9BBE
:104DF00002CB14935346002B00D138E19C4608782F
:104E00000B000C908C44002801D100F098FC8946DE
:104E10006146944603E05A780133002A01D08B4260
:104E2000F9D1494662465B1A0C900F93530500D5A1
:104E300020E10223180010400D90134200D1CBE373
:104E40000D930B1BB1469A465E460C9822003B0020
:104E50003100A84753460134185D0028F6D1B34607
:104E60004E460D9B002B00D0C7E1149B0C93C9E666
:104E70000C9301239C4628384942024388467078A7
:104E80004E46E144E5E670786C2800D17FE180234E
:104E90005B001A43FF3B9C46E14402E780239B00F2
:104EA0001A4301239C467078E144FAE6707868283A
:104EB00000D173E180231A437F3B9C46E144F0E636
:104EC000672800D103E1472800D15AE1452800D1E5
:104ED0005AE10492072142460C9B03920733524643
:104EE0008B43190002920CC92800009201930C9187
:104EF00022003B005946FFF79FFB040082E6C046B4
:104F0000B54B001054390020F4CF011038D00110F7
:104F100084D0011041900000462800D1DBE00492CB
:104F2000072142460C9B0392073352468B431900DC
:104F300002920CC92800009201930C9122003B00C0
:104F40005946FFF725F904005CE6631C98462200E9
:104F50003B0059462520A847444653E60C9B0433A2
:104F60000D93631C9946920700D422E10C9B22000A
:104F7000187859463B00A84743464444012B00D8C3
:104F800085E23300B8462E005F4625004C46994620
:104F900022004346013439002020B047AC42F7D10B
:104FA0002C00BB46350047464E460D9B0C9329E628
:104FB000DB4B3078984600239946002800D012E653
:104FC0000024AEE66F2800D188E000D80BE3102360
:104FD000782800D1CFE09A430A239C4600230F9300
:104FE0000A330D9380E05646B10089194900013318
:104FF0000E181878303E010030390929F4D9B2462C
:105000001E000133994628E60C9B023602CB8A46E5
:10501000C9435046C917084082460C933078731C28
:1050200099461AE61023100098431133184381461D
:1050300080201300C0000340024200D1A9E64B4685
:1050400006930823059353460493102303930023E8
:1050500002930F9B220001931CAB009359463B0027
:105060002800FEF79FFF434604000C93CAE5012386
:105070005B42C3E60F9B534501D953460F9302236E
:10508000180010400D90134200D1B7E10D93D146A6
:105090000B1B9A463300A1442E0022004D460C986B
:1050A000B9465F469B4608E04B463900541CB04762
:1050B0005346185D002877D022009542F4D15B4614
:1050C000BB464F46A94635004C461E00C9E6802324
:1050D0001B011A43FDE620231A4320E708239C46C0
:1050E00000230F9308330D9380231100DB00194038
:1050F0001A4200D116E10D239A43100080230200CA
:105100009B001A401492184200D0C2E18023020092
:105110005B001A4091460C9A04320F92184200D05C
:10512000B7E2430600D59FE1030600D419E30C9BC8
:105130001B880993002B00D0FCE110339843002911
:1051400000D1F7E100239946434605935346049363
:105150000D9B069003930023D2E0582808D06228C4
:1051600067D102239C4600230F9302330D93BBE7C4
:1051700020231A43103B9C4600230F9310330D93BA
:10518000B2E780231B011A4320231A43A1E6C02360
:105190009B001A43F31C9946B07882E5C0231A435A
:1051A000F31C9946B0787CE535005E46BB464F4619
:1051B00057E64346012B00D863E1631E43449A46F9
:1051C0003300B9462E005F4655469B46A246220054
:1051D0004B46013439002020B047AC42F7D13500AE
:1051E0005E46BB464F46A14654460C9B4A4618783D
:1051F00059463B004444A847D7E6A1460F9B984533
:1052000000D832E64444E41A3300B8462E005F4624
:1052100025004C469946220043460134390020209F
:10522000B047AC42F7D12C00BB46350047464E464E
:105230001BE680231000DB0018401A4200D10FE16A
:10524000112118008A430D920D9A802311009B00B2
:1052500019408C461A4269D1802311005B00194025
:1052600089460C9904310F911A4200D0CAE113000B
:105270005B0600D5F0E013001B0600D459E20C9B3E
:1052800000229B5ED9175A184A4092B2D90F0C914E
:10529000002B00D1F9E1100014AA944642461F23C6
:1052A000149252466344A84616944D460400B946EB
:1052B000B2461F00159201E0202D0FD020000A21D8
:1052C000FEF734F901357E193031317020000A21A2
:1052D000FEF72CF926000400092EEDD8149B4F464A
:1052E000A94645469846159B56469A46169C0D9BE0
:1052F000069343460593534604930A2303930C9B5A
:1053000002934B4601931CAB2200009359463B008D
:105310002800FEF747FE0F9B04000C9372E4C04682
:10532000F53E00100C239A431000E7E607220C9B81
:1053300007339343013294469C4462460C920CCB53
:10534000D90F0F911100194300D191E0D917139192
:10535000129151401091139959401191109811993F
:10536000129A139B801A99411090119114AA00234C
:10537000944642469946149252461F336344A846C7
:10538000B24616944E46109C119DB94615921F00C8
:1053900001E0202E10D0200029000A220023FEF771
:1053A00003F9013630322B00BA550D0022000400FB
:1053B000002BEED1092AECD8149B10941195454688
:1053C0009846159B4F46B14656469A46169C0D9BED
:1053D000069343460593534604930A2303930F9B76
:1053E00002934B4601931CAB2200009359463B00AD
:1053F0002800FEF7D7FD0400FFF704FC0F9B98453B
:1054000000D8C1E18023DB000D9343460F9A1B199E
:105410009B1A994633002E004D46B9465F469B467F
:105420000C9122004B46013439002020B047AC4299
:10543000F7D143460C9901330F930B7835000C9349
:105440005E46BB464F46002B00D10EE50D9B002B60
:1054500000D1F6E4002319E60C9B1B781A0015E72F
:1054600010239A430D92EFE60C9B1B78099361E69B
:10547000002399460028AAD10022002310921193FC
:1054800074E70C9B2200187859463B00A8474C460D
:105490008BE50C9AFA3BFF3B07329A43013399465E
:1054A00091444B460C931368526815921A4306D1E7
:1054B0001032904300220992002900D081E061223D
:1054C000810600D54122D2B20A9214AA91460A9AC4
:1054D00000210A3A149242461792524618925A46AE
:1054E0000991B3461F311E000F9B4944BA461994D7
:1054F0001A950024674698468946159D16901B927A
:105500000AE03032D2B24B4601341A55A8454AD08F
:10551000202C4AD006000D003A000023300029005C
:10552000FEF742F8D2B2092AEBD9149B9C4662449A
:10553000D2B2E8E76123820600D54123DBB20A3B01
:105540000C93434614A91F228C461593534662447C
:10555000A046B2464C461797A9461700099D0D9ED6
:105560001490169308E03033DBB201343B55B5425A
:105570000ED3202C0CD0050031002800FDF7D6FFFB
:10558000CBB20929EFD90C9A94466344DBB2ECE71D
:10559000159B4D46A14644469846169B5646149880
:1055A0009A46179FD0E5B742B2D9179B57469846FF
:1055B000189B5E469A461B9B09949B461698199C1D
:1055C0001A9D43460593534604930D9B06900393FF
:1055D00000230293099B05E70F9B984500D914E728
:1055E00001330F932DE41023110099430D91692885
:1055F00000D0BAE080231000DB0018401A4200D12E
:1056000022E61DE60C9B1B68DA0F1100002B00D16F
:105610008CE0DA179818504014AA914642461F238E
:10562000149252464B44A046A9461697040065467C
:10563000B2461F000C91159201E0202D0FD02000E2
:105640000A21FDF773FF01357E19303131702000DA
:105650000A21FDF76BFF26000400092EEDD8149BEC
:10566000444698460C9BAC461900159B56464D4641
:105670009A46169F0D9B0291069343460593534607
:1056800004930A23039363463CE6002800D02EE6E9
:1056900002E60C9B1B689946002B03D110339843FC
:1056A000002938D16123820600D54123DBB20A3BB1
:1056B0000C9343461693534614A91F228C46179306
:1056C0002B006244A0464D46B246189799461700F3
:1056D000149C0D9E159008E03033DBB201343B552D
:1056E000B5420ED3202C0CD0050031002800FDF768
:1056F0001DFFCBB20929EFD90C9A94466344DBB263
:10570000ECE7169B149444469846179B56464D4624
:105710009A461598189F43460593534604930D9B4C
:105720000690039300230293149BEBE50028A1D17C
:1057300072E70C9B1B68D9175A184A40A6E58023CC
:105740001000DB0018409C460F901A420FD0022038
:10575000030013400F93104219D00023A1460F936A
:105760004CE50C9B1B680993E4E40A0034E4022333
:10577000180010400D90134200D03EE54346002B28
:1057800000D042E6FFF771FB01330F937FE46346DD
:105790000D93F3E710B50C0084B00394012402A923
:1057A00002900093034813006242FFF703FA04B02B
:1057B00010BDC0468141001010B5094A03001468AD
:1057C00084B0002C08D0012200910648524203A95F
:1057D000A047012004B010BD00F0B2F90020F9E7A5
:1057E000543900207141001000BEFDE7094A030052
:1057F0001068002805D00849C3188B4207D81360E9
:10580000704706480449C31810608B42F7D901203D
:105810004042F5E7183500200000042050E802203F
:1058200010B5FFF7E1FFC04670B5FDF779FD074DF4
:10583000074EB54209D20024013E761BB60808CDBA
:10584000984723000134B342F9D170BDFCAF011079
:1058500008B00110030010B5080011001B6898473C
:1058600010BDC046F0B5C64600B5437D07000C002C
:105870001600002B46D0002A17DD0B780A2B24D007
:1058800000239846012E13D001252900635C0135C1
:105890000A2B26D0B542F8D1464509DCA419013CB3
:1058A00023780D3B5A4253413B7580BCB846F0BD4E
:1058B0004346E018A419F11A013C3B689847237845
:1058C0000D3B5A4253413B75EFE7037D002BD7D187
:1058D00002210F483B689847012EDFD001239846EC
:1058E000D2E7631E5B5C0D2BD4D0884504DA4346B7
:1058F000C91AE0183B689847022105483B68A8464A
:105900009847C7E70368110020009847CDE7C046D5
:10591000E0D10110F0B5C6460B6806000C0000B5DA
:10592000802B06D05A1C2260E418267180BCB84631
:10593000F0BD0F4B1D68002D16D00B1D98460D4F66
:1059400002E02D69002D0FD02B68002BF9D03B68A9
:10595000002B01D0AB42F4D1280041462268FFF76A
:1059600081FF2D69002DEFD101220023DBE7C04626
:105970007433002084330020F0B54546DE464E46A1
:105980005746E0B583B091461C0080460D00FDF7F8
:10599000B1FA0023304A12184B41002B02DA0122DF
:1059A0002E4B52422E4908008A4615F0C9FA0700CC
:1059B0006B1C03D1404615F0E9F80500002C27D0F8
:1059C000284E294B1C68002C18D04B46002B21D1A7
:1059D000264B994602E02469002C0FD02368002B47
:1059E000F9D04B461B68002B01D09C42F3D120001C
:1059F0002A004146B0472469002CEFD1002F26D160
:105A0000280003B0F0BCBB46B246A946A046F0BD94
:105A1000174ED6E7154B99460A239B4602E02469A8
:105A2000002CEBD02368002BF9D04B461B68002BD1
:105A300001D0A342F3D12A0041462000B0476B4673
:105A40005A462000DA71D91D0122B047E7E75046D7
:105A500015F02EFAD4E7C04640420F00FFFFFF7F4B
:105A60004018002065580010743300208433002053
:105A7000555800100A4A1368002B05D10CE01A0093
:105A80001B691032002B07D08342F8D1002902D1C4
:105A900018691060196170470029FCD01060FAE79E
:105AA0007433002010B500F0F1FA10BDF0B5CE4609
:105AB000474680B583B06B460600DD1D2870FDF7B4
:105AC00019FA0023194A12184B41002B02DA01225D
:105AD000174B524217490800884615F031FA164B09
